{
  "_format": "hh-sol-artifact-1",
  "contractName": "ButtonGame",
  "sourceName": "contracts/ButtonGame.sol",
  "abi": [
    {
      "inputs": [
        {
          "internalType": "address",
          "name": "initialOwner",
          "type": "address"
        },
        {
          "internalType": "uint256",
          "name": "_initialTimerDuration",
          "type": "uint256"
        },
        {
          "internalType": "uint256",
          "name": "_initialEntryFee",
          "type": "uint256"
        }
      ],
      "stateMutability": "nonpayable",
      "type": "constructor"
    },
    {
      "inputs": [
        {
          "internalType": "address",
          "name": "owner",
          "type": "address"
        }
      ],
      "name": "OwnableInvalidOwner",
      "type": "error"
    },
    {
      "inputs": [
        {
          "internalType": "address",
          "name": "account",
          "type": "address"
        }
      ],
      "name": "OwnableUnauthorizedAccount",
      "type": "error"
    },
    {
      "anonymous": false,
      "inputs": [
        {
          "indexed": true,
          "internalType": "address",
          "name": "player",
          "type": "address"
        },
        {
          "indexed": false,
          "internalType": "uint256",
          "name": "newTimerEnd",
          "type": "uint256"
        },
        {
          "indexed": false,
          "internalType": "uint256",
          "name": "newPrizePool",
          "type": "uint256"
        }
      ],
      "name": "ButtonPressed",
      "type": "event"
    },
    {
      "anonymous": false,
      "inputs": [
        {
          "indexed": false,
          "internalType": "uint256",
          "name": "newFee",
          "type": "uint256"
        }
      ],
      "name": "EntryFeeConfigured",
      "type": "event"
    },
    {
      "anonymous": false,
      "inputs": [
        {
          "indexed": false,
          "internalType": "bool",
          "name": "active",
          "type": "bool"
        }
      ],
      "name": "GameStatusChanged",
      "type": "event"
    },
    {
      "anonymous": false,
      "inputs": [
        {
          "indexed": true,
          "internalType": "address",
          "name": "previousOwner",
          "type": "address"
        },
        {
          "indexed": true,
          "internalType": "address",
          "name": "newOwner",
          "type": "address"
        }
      ],
      "name": "OwnershipTransferred",
      "type": "event"
    },
    {
      "anonymous": false,
      "inputs": [
        {
          "indexed": true,
          "internalType": "address",
          "name": "winner",
          "type": "address"
        },
        {
          "indexed": false,
          "internalType": "uint256",
          "name": "amount",
          "type": "uint256"
        }
      ],
      "name": "PrizeWon",
      "type": "event"
    },
    {
      "anonymous": false,
      "inputs": [
        {
          "indexed": false,
          "internalType": "uint256",
          "name": "newDuration",
          "type": "uint256"
        }
      ],
      "name": "TimerConfigured",
      "type": "event"
    },
    {
      "inputs": [],
      "name": "claimPrize",
      "outputs": [],
      "stateMutability": "nonpayable",
      "type": "function"
    },
    {
      "inputs": [],
      "name": "entryFee",
      "outputs": [
        {
          "internalType": "uint256",
          "name": "",
          "type": "uint256"
        }
      ],
      "stateMutability": "view",
      "type": "function"
    },
    {
      "inputs": [],
      "name": "gameActive",
      "outputs": [
        {
          "internalType": "bool",
          "name": "",
          "type": "bool"
        }
      ],
      "stateMutability": "view",
      "type": "function"
    },
    {
      "inputs": [],
      "name": "getGameState",
      "outputs": [
        {
          "internalType": "uint256",
          "name": "_timerEnd",
          "type": "uint256"
        },
        {
          "internalType": "uint256",
          "name": "_prizePool",
          "type": "uint256"
        },
        {
          "internalType": "address",
          "name": "_lastPlayer",
          "type": "address"
        },
        {
          "internalType": "bool",
          "name": "_gameActive",
          "type": "bool"
        },
        {
          "internalType": "uint256",
          "name": "_timeRemaining",
          "type": "uint256"
        }
      ],
      "stateMutability": "view",
      "type": "function"
    },
    {
      "inputs": [],
      "name": "lastPlayer",
      "outputs": [
        {
          "internalType": "address",
          "name": "",
          "type": "address"
        }
      ],
      "stateMutability": "view",
      "type": "function"
    },
    {
      "inputs": [],
      "name": "owner",
      "outputs": [
        {
          "internalType": "address",
          "name": "",
          "type": "address"
        }
      ],
      "stateMutability": "view",
      "type": "function"
    },
    {
      "inputs": [],
      "name": "pressButton",
      "outputs": [],
      "stateMutability": "payable",
      "type": "function"
    },
    {
      "inputs": [],
      "name": "prizePool",
      "outputs": [
        {
          "internalType": "uint256",
          "name": "",
          "type": "uint256"
        }
      ],
      "stateMutability": "view",
      "type": "function"
    },
    {
      "inputs": [],
      "name": "renounceOwnership",
      "outputs": [],
      "stateMutability": "nonpayable",
      "type": "function"
    },
    {
      "inputs": [
        {
          "internalType": "uint256",
          "name": "_newFee",
          "type": "uint256"
        }
      ],
      "name": "setEntryFee",
      "outputs": [],
      "stateMutability": "nonpayable",
      "type": "function"
    },
    {
      "inputs": [
        {
          "internalType": "bool",
          "name": "_active",
          "type": "bool"
        }
      ],
      "name": "setGameActive",
      "outputs": [],
      "stateMutability": "nonpayable",
      "type": "function"
    },
    {
      "inputs": [
        {
          "internalType": "uint256",
          "name": "_newDuration",
          "type": "uint256"
        }
      ],
      "name": "setTimerDuration",
      "outputs": [],
      "stateMutability": "nonpayable",
      "type": "function"
    },
    {
      "inputs": [],
      "name": "timerDuration",
      "outputs": [
        {
          "internalType": "uint256",
          "name": "",
          "type": "uint256"
        }
      ],
      "stateMutability": "view",
      "type": "function"
    },
    {
      "inputs": [],
      "name": "timerEnd",
      "outputs": [
        {
          "internalType": "uint256",
          "name": "",
          "type": "uint256"
        }
      ],
      "stateMutability": "view",
      "type": "function"
    },
    {
      "inputs": [
        {
          "internalType": "address",
          "name": "newOwner",
          "type": "address"
        }
      ],
      "name": "transferOwnership",
      "outputs": [],
      "stateMutability": "nonpayable",
      "type": "function"
    },
    {
      "inputs": [
        {
          "internalType": "uint256",
          "name": "amount",
          "type": "uint256"
        }
      ],
      "name": "withdraw",
      "outputs": [],
      "stateMutability": "nonpayable",
      "type": "function"
    },
    {
      "stateMutability": "payable",
      "type": "receive"
    }
  ],
  "bytecode": "0x608060405234801561001057600080fd5b50604051610c1f380380610c1f83398101604081905261002f916100eb565b826001600160a01b03811661005e57604051631e4fbdf760e01b81526000600482015260240160405180910390fd5b6100678161009b565b50600182905560038190556005805460ff60a01b1916600160a01b17905561008f824261012e565b60025550610155915050565b600080546001600160a01b038381166001600160a01b0319831681178455604051919092169283917f8be0079c531659141344cd1fd0a4f28419497f9722a3daafe3b4186f6b6457e09190a35050565b60008060006060848603121561010057600080fd5b83516001600160a01b038116811461011757600080fd5b602085015160409095015190969495509392505050565b8082018082111561014f57634e487b7160e01b600052601160045260246000fd5b92915050565b610abb806101646000396000f3fe6080604052600436106100f75760003560e01c8063b7d0628b1161008a578063e3450e1311610059578063e3450e131461027f578063eb770d0c1461029f578063f020044f146102bf578063f2fde38b146102f057600080fd5b8063b7d0628b146101f6578063c8b5da6614610241578063ccc0897414610249578063db9f06761461026957600080fd5b8063715018a6116100c6578063715018a614610183578063719ce73e146101985780638da5cb5b146101ae5780639119c13c146101e057600080fd5b8063072ea61c14610103578063203ad5861461012c5780632e1a7d4d1461014e57806370740ac91461016e57600080fd5b366100fe57005b600080fd5b34801561010f57600080fd5b5061011960035481565b6040519081526020015b60405180910390f35b34801561013857600080fd5b5061014c6101473660046109d8565b610310565b005b34801561015a57600080fd5b5061014c6101693660046109d8565b6103b7565b34801561017a57600080fd5b5061014c61045a565b34801561018f57600080fd5b5061014c6106a0565b3480156101a457600080fd5b5061011960045481565b3480156101ba57600080fd5b506000546001600160a01b03165b6040516001600160a01b039091168152602001610123565b3480156101ec57600080fd5b5061011960015481565b34801561020257600080fd5b5061020b6106b4565b6040805195865260208601949094526001600160a01b03909216928401929092529015156060830152608082015260a001610123565b61014c6106fc565b34801561025557600080fd5b5061014c6102643660046109f1565b61088b565b34801561027557600080fd5b5061011960025481565b34801561028b57600080fd5b506005546101c8906001600160a01b031681565b3480156102ab57600080fd5b5061014c6102ba3660046109d8565b6108e0565b3480156102cb57600080fd5b506005546102e090600160a01b900460ff1681565b6040519015158152602001610123565b3480156102fc57600080fd5b5061014c61030b366004610a1a565b61091d565b61031861095b565b6000811161037b5760405162461bcd60e51b815260206004820152602560248201527f54696d6572206475726174696f6e206d75737420626520677265617465722074604482015264068616e20360dc1b60648201526084015b60405180910390fd5b60018190556040518181527fe7ffa30cb35b3b43cfe961cad93bb44760a282c7b8de6d11d9c512e73304556a906020015b60405180910390a150565b6103bf61095b565b600080546040516001600160a01b039091169083908381818185875af1925050503d806000811461040c576040519150601f19603f3d011682016040523d82523d6000602084013e610411565b606091505b50509050806104565760405162461bcd60e51b815260206004820152601160248201527015da5d1a191c985dd85b0819985a5b1959607a1b6044820152606401610372565b5050565b600554600160a01b900460ff166104a85760405162461bcd60e51b815260206004820152601260248201527147616d65206973206e6f742061637469766560701b6044820152606401610372565b6002544210156104fa5760405162461bcd60e51b815260206004820152601960248201527f54696d657220686173206e6f74206578706972656420796574000000000000006044820152606401610372565b6000600454116105405760405162461bcd60e51b81526020600482015260116024820152704e6f207072697a6520746f20636c61696d60781b6044820152606401610372565b6005546001600160a01b03166105895760405162461bcd60e51b815260206004820152600e60248201526d2737903630b9ba10383630bcb2b960911b6044820152606401610372565b600480546005805460009093556001600160a01b03198316905560015490916001600160a01b0316906105bc9042610a59565b6002556040516000906001600160a01b0383169084908381818185875af1925050503d806000811461060a576040519150601f19603f3d011682016040523d82523d6000602084013e61060f565b606091505b50509050806106585760405162461bcd60e51b8152602060048201526015602482015274141c9a5e99481d1c985b9cd9995c8819985a5b1959605a1b6044820152606401610372565b816001600160a01b03167f7a8c3415d46b0dd859ab2ff090579d9ab303bc3548f1cc9eae7586fb6cbdf3988460405161069391815260200190565b60405180910390a2505050565b6106a861095b565b6106b26000610988565b565b6002546004546005546001600160a01b03811690600160a01b900460ff166000428511156106f157426002546106ea9190610a72565b90506106f5565b5060005b9091929394565b600554600160a01b900460ff1661074a5760405162461bcd60e51b815260206004820152601260248201527147616d65206973206e6f742061637469766560701b6044820152606401610372565b60025442106107b55760405162461bcd60e51b815260206004820152603160248201527f54696d6572206861732065787069726564202d207072697a652073686f756c646044820152700818994818db185a5b595908199a5c9cdd607a1b6064820152608401610372565b60035434146108065760405162461bcd60e51b815260206004820152601a60248201527f496e636f727265637420656e7472792066656520616d6f756e740000000000006044820152606401610372565b34600460008282546108189190610a59565b909155505060015461082a9042610a59565b6002819055600580546001600160a01b0319163390811790915560045460405191927fe816972f464a9da2ff9fbb1570e69df8b700d86c54445aa3d3bc294e950c42dc926108819290918252602082015260400190565b60405180910390a2565b61089361095b565b60058054821515600160a01b0260ff60a01b199091161790556040517ffc5e76d60c483e79ee18a38d792a63cc569f716fce9f2c04d20725dda4580fcb906103ac90831515815260200190565b6108e861095b565b60038190556040518181527fde6c295af150a0ecd2b5098c61bc2dc5882c1673e0f58c7dfcf0a81f7921cbca906020016103ac565b61092561095b565b6001600160a01b03811661094f57604051631e4fbdf760e01b815260006004820152602401610372565b61095881610988565b50565b6000546001600160a01b031633146106b25760405163118cdaa760e01b8152336004820152602401610372565b600080546001600160a01b038381166001600160a01b0319831681178455604051919092169283917f8be0079c531659141344cd1fd0a4f28419497f9722a3daafe3b4186f6b6457e09190a35050565b6000602082840312156109ea57600080fd5b5035919050565b600060208284031215610a0357600080fd5b81358015158114610a1357600080fd5b9392505050565b600060208284031215610a2c57600080fd5b81356001600160a01b0381168114610a1357600080fd5b634e487b7160e01b600052601160045260246000fd5b80820180821115610a6c57610a6c610a43565b92915050565b81810381811115610a6c57610a6c610a4356fea2646970667358221220afe46af1f0fd4d20694a4e7d79cb2693eb38445f4b8a1f40775c3d7b68adf15a64736f6c634300081c0033",
  "linkReferences": {},
  "deployedLinkReferences": {}
}