{
  "_format": "hh-sol-artifact-1",
  "contractName": "ButtonGame",
  "sourceName": "contracts/ButtonGame.sol",
  "abi": [
    {
      "inputs": [
        {
          "internalType": "address",
          "name": "initialOwner",
          "type": "address"
        },
        {
          "internalType": "uint256",
          "name": "_initialTimerDuration",
          "type": "uint256"
        },
        {
          "internalType": "uint256",
          "name": "_initialEntryFee",
          "type": "uint256"
        },
        {
          "internalType": "uint256",
          "name": "_initialPrizePool",
          "type": "uint256"
        }
      ],
      "stateMutability": "nonpayable",
      "type": "constructor"
    },
    {
      "inputs": [
        {
          "internalType": "address",
          "name": "owner",
          "type": "address"
        }
      ],
      "name": "OwnableInvalidOwner",
      "type": "error"
    },
    {
      "inputs": [
        {
          "internalType": "address",
          "name": "account",
          "type": "address"
        }
      ],
      "name": "OwnableUnauthorizedAccount",
      "type": "error"
    },
    {
      "inputs": [],
      "name": "ReentrancyGuardReentrantCall",
      "type": "error"
    },
    {
      "anonymous": false,
      "inputs": [
        {
          "indexed": true,
          "internalType": "address",
          "name": "player",
          "type": "address"
        },
        {
          "indexed": false,
          "internalType": "uint256",
          "name": "newTimerEnd",
          "type": "uint256"
        },
        {
          "indexed": false,
          "internalType": "uint256",
          "name": "newPrizePool",
          "type": "uint256"
        },
        {
          "indexed": false,
          "internalType": "bool",
          "name": "isFreePlay",
          "type": "bool"
        }
      ],
      "name": "ButtonPressed",
      "type": "event"
    },
    {
      "anonymous": false,
      "inputs": [
        {
          "indexed": false,
          "internalType": "uint256",
          "name": "newFee",
          "type": "uint256"
        }
      ],
      "name": "EntryFeeConfigured",
      "type": "event"
    },
    {
      "anonymous": false,
      "inputs": [
        {
          "indexed": false,
          "internalType": "bool",
          "name": "active",
          "type": "bool"
        }
      ],
      "name": "GameStatusChanged",
      "type": "event"
    },
    {
      "anonymous": false,
      "inputs": [
        {
          "indexed": false,
          "internalType": "uint256",
          "name": "newAmount",
          "type": "uint256"
        }
      ],
      "name": "InitialPrizePoolConfigured",
      "type": "event"
    },
    {
      "anonymous": false,
      "inputs": [
        {
          "indexed": false,
          "internalType": "uint256",
          "name": "round",
          "type": "uint256"
        },
        {
          "indexed": false,
          "internalType": "uint256",
          "name": "initialPrize",
          "type": "uint256"
        }
      ],
      "name": "NewGameStarted",
      "type": "event"
    },
    {
      "anonymous": false,
      "inputs": [
        {
          "indexed": true,
          "internalType": "address",
          "name": "previousOwner",
          "type": "address"
        },
        {
          "indexed": true,
          "internalType": "address",
          "name": "newOwner",
          "type": "address"
        }
      ],
      "name": "OwnershipTransferred",
      "type": "event"
    },
    {
      "anonymous": false,
      "inputs": [
        {
          "indexed": false,
          "internalType": "uint256",
          "name": "newPercentage",
          "type": "uint256"
        }
      ],
      "name": "PrizeFeePercentageConfigured",
      "type": "event"
    },
    {
      "anonymous": false,
      "inputs": [
        {
          "indexed": true,
          "internalType": "address",
          "name": "winner",
          "type": "address"
        },
        {
          "indexed": false,
          "internalType": "uint256",
          "name": "amount",
          "type": "uint256"
        },
        {
          "indexed": false,
          "internalType": "uint256",
          "name": "round",
          "type": "uint256"
        }
      ],
      "name": "PrizeWon",
      "type": "event"
    },
    {
      "anonymous": false,
      "inputs": [
        {
          "indexed": false,
          "internalType": "uint256",
          "name": "newAmount",
          "type": "uint256"
        }
      ],
      "name": "ProgressiveJackpotUpdated",
      "type": "event"
    },
    {
      "anonymous": false,
      "inputs": [
        {
          "indexed": false,
          "internalType": "uint256",
          "name": "newDuration",
          "type": "uint256"
        }
      ],
      "name": "TimerConfigured",
      "type": "event"
    },
    {
      "inputs": [],
      "name": "FREE_PLAY_COOLDOWN",
      "outputs": [
        {
          "internalType": "uint256",
          "name": "",
          "type": "uint256"
        }
      ],
      "stateMutability": "view",
      "type": "function"
    },
    {
      "inputs": [],
      "name": "addToJackpot",
      "outputs": [],
      "stateMutability": "payable",
      "type": "function"
    },
    {
      "inputs": [],
      "name": "claimPrize",
      "outputs": [],
      "stateMutability": "nonpayable",
      "type": "function"
    },
    {
      "inputs": [
        {
          "internalType": "uint256",
          "name": "sponsorshipAmount",
          "type": "uint256"
        }
      ],
      "name": "claimPrizeAndStartNewGame",
      "outputs": [],
      "stateMutability": "payable",
      "type": "function"
    },
    {
      "inputs": [],
      "name": "entryFee",
      "outputs": [
        {
          "internalType": "uint256",
          "name": "",
          "type": "uint256"
        }
      ],
      "stateMutability": "view",
      "type": "function"
    },
    {
      "inputs": [],
      "name": "fundPrizePool",
      "outputs": [],
      "stateMutability": "payable",
      "type": "function"
    },
    {
      "inputs": [],
      "name": "gameActive",
      "outputs": [
        {
          "internalType": "bool",
          "name": "",
          "type": "bool"
        }
      ],
      "stateMutability": "view",
      "type": "function"
    },
    {
      "inputs": [],
      "name": "gameRound",
      "outputs": [
        {
          "internalType": "uint256",
          "name": "",
          "type": "uint256"
        }
      ],
      "stateMutability": "view",
      "type": "function"
    },
    {
      "inputs": [],
      "name": "getGameState",
      "outputs": [
        {
          "internalType": "uint256",
          "name": "_timerEnd",
          "type": "uint256"
        },
        {
          "internalType": "uint256",
          "name": "_prizePool",
          "type": "uint256"
        },
        {
          "internalType": "address",
          "name": "_lastPlayer",
          "type": "address"
        },
        {
          "internalType": "bool",
          "name": "_gameActive",
          "type": "bool"
        },
        {
          "internalType": "uint256",
          "name": "_timeRemaining",
          "type": "uint256"
        },
        {
          "internalType": "uint256",
          "name": "_currentRound",
          "type": "uint256"
        },
        {
          "internalType": "uint256",
          "name": "_progressiveJackpot",
          "type": "uint256"
        }
      ],
      "stateMutability": "view",
      "type": "function"
    },
    {
      "inputs": [
        {
          "internalType": "uint256",
          "name": "count",
          "type": "uint256"
        }
      ],
      "name": "getLatestWinners",
      "outputs": [
        {
          "components": [
            {
              "internalType": "address",
              "name": "winner",
              "type": "address"
            },
            {
              "internalType": "uint256",
              "name": "prize",
              "type": "uint256"
            },
            {
              "internalType": "uint256",
              "name": "timestamp",
              "type": "uint256"
            },
            {
              "internalType": "uint256",
              "name": "round",
              "type": "uint256"
            }
          ],
          "internalType": "struct ButtonGame.WinnerInfo[]",
          "name": "",
          "type": "tuple[]"
        }
      ],
      "stateMutability": "view",
      "type": "function"
    },
    {
      "inputs": [
        {
          "internalType": "uint256",
          "name": "fromIndex",
          "type": "uint256"
        },
        {
          "internalType": "uint256",
          "name": "count",
          "type": "uint256"
        }
      ],
      "name": "getWinners",
      "outputs": [
        {
          "components": [
            {
              "internalType": "address",
              "name": "winner",
              "type": "address"
            },
            {
              "internalType": "uint256",
              "name": "prize",
              "type": "uint256"
            },
            {
              "internalType": "uint256",
              "name": "timestamp",
              "type": "uint256"
            },
            {
              "internalType": "uint256",
              "name": "round",
              "type": "uint256"
            }
          ],
          "internalType": "struct ButtonGame.WinnerInfo[]",
          "name": "",
          "type": "tuple[]"
        }
      ],
      "stateMutability": "view",
      "type": "function"
    },
    {
      "inputs": [],
      "name": "getWinnersCount",
      "outputs": [
        {
          "internalType": "uint256",
          "name": "",
          "type": "uint256"
        }
      ],
      "stateMutability": "view",
      "type": "function"
    },
    {
      "inputs": [],
      "name": "initialPrizePool",
      "outputs": [
        {
          "internalType": "uint256",
          "name": "",
          "type": "uint256"
        }
      ],
      "stateMutability": "view",
      "type": "function"
    },
    {
      "inputs": [
        {
          "internalType": "address",
          "name": "user",
          "type": "address"
        }
      ],
      "name": "isEligibleForFreePlay",
      "outputs": [
        {
          "internalType": "bool",
          "name": "",
          "type": "bool"
        }
      ],
      "stateMutability": "view",
      "type": "function"
    },
    {
      "inputs": [
        {
          "internalType": "address",
          "name": "",
          "type": "address"
        }
      ],
      "name": "lastFreePlay",
      "outputs": [
        {
          "internalType": "uint256",
          "name": "",
          "type": "uint256"
        }
      ],
      "stateMutability": "view",
      "type": "function"
    },
    {
      "inputs": [],
      "name": "lastPlayer",
      "outputs": [
        {
          "internalType": "address",
          "name": "",
          "type": "address"
        }
      ],
      "stateMutability": "view",
      "type": "function"
    },
    {
      "inputs": [],
      "name": "owner",
      "outputs": [
        {
          "internalType": "address",
          "name": "",
          "type": "address"
        }
      ],
      "stateMutability": "view",
      "type": "function"
    },
    {
      "inputs": [
        {
          "internalType": "bool",
          "name": "useFreePlay",
          "type": "bool"
        }
      ],
      "name": "pressButton",
      "outputs": [],
      "stateMutability": "payable",
      "type": "function"
    },
    {
      "inputs": [],
      "name": "prizeFeePercentage",
      "outputs": [
        {
          "internalType": "uint256",
          "name": "",
          "type": "uint256"
        }
      ],
      "stateMutability": "view",
      "type": "function"
    },
    {
      "inputs": [],
      "name": "prizePool",
      "outputs": [
        {
          "internalType": "uint256",
          "name": "",
          "type": "uint256"
        }
      ],
      "stateMutability": "view",
      "type": "function"
    },
    {
      "inputs": [],
      "name": "progressiveJackpot",
      "outputs": [
        {
          "internalType": "uint256",
          "name": "",
          "type": "uint256"
        }
      ],
      "stateMutability": "view",
      "type": "function"
    },
    {
      "inputs": [],
      "name": "renounceOwnership",
      "outputs": [],
      "stateMutability": "nonpayable",
      "type": "function"
    },
    {
      "inputs": [
        {
          "internalType": "uint256",
          "name": "",
          "type": "uint256"
        }
      ],
      "name": "roundWinners",
      "outputs": [
        {
          "internalType": "address",
          "name": "winner",
          "type": "address"
        },
        {
          "internalType": "uint256",
          "name": "prize",
          "type": "uint256"
        },
        {
          "internalType": "uint256",
          "name": "timestamp",
          "type": "uint256"
        },
        {
          "internalType": "uint256",
          "name": "round",
          "type": "uint256"
        }
      ],
      "stateMutability": "view",
      "type": "function"
    },
    {
      "inputs": [
        {
          "internalType": "uint256",
          "name": "_newFee",
          "type": "uint256"
        }
      ],
      "name": "setEntryFee",
      "outputs": [],
      "stateMutability": "nonpayable",
      "type": "function"
    },
    {
      "inputs": [
        {
          "internalType": "bool",
          "name": "_active",
          "type": "bool"
        }
      ],
      "name": "setGameActive",
      "outputs": [],
      "stateMutability": "nonpayable",
      "type": "function"
    },
    {
      "inputs": [
        {
          "internalType": "uint256",
          "name": "_newAmount",
          "type": "uint256"
        }
      ],
      "name": "setInitialPrizePool",
      "outputs": [],
      "stateMutability": "nonpayable",
      "type": "function"
    },
    {
      "inputs": [
        {
          "internalType": "uint256",
          "name": "_newPercentage",
          "type": "uint256"
        }
      ],
      "name": "setPrizeFeePercentage",
      "outputs": [],
      "stateMutability": "nonpayable",
      "type": "function"
    },
    {
      "inputs": [
        {
          "internalType": "uint256",
          "name": "_newDuration",
          "type": "uint256"
        }
      ],
      "name": "setTimerDuration",
      "outputs": [],
      "stateMutability": "nonpayable",
      "type": "function"
    },
    {
      "inputs": [],
      "name": "startNewGame",
      "outputs": [],
      "stateMutability": "nonpayable",
      "type": "function"
    },
    {
      "inputs": [],
      "name": "timerDuration",
      "outputs": [
        {
          "internalType": "uint256",
          "name": "",
          "type": "uint256"
        }
      ],
      "stateMutability": "view",
      "type": "function"
    },
    {
      "inputs": [],
      "name": "timerEnd",
      "outputs": [
        {
          "internalType": "uint256",
          "name": "",
          "type": "uint256"
        }
      ],
      "stateMutability": "view",
      "type": "function"
    },
    {
      "inputs": [
        {
          "internalType": "address",
          "name": "newOwner",
          "type": "address"
        }
      ],
      "name": "transferOwnership",
      "outputs": [],
      "stateMutability": "nonpayable",
      "type": "function"
    },
    {
      "inputs": [
        {
          "internalType": "uint256",
          "name": "",
          "type": "uint256"
        }
      ],
      "name": "winners",
      "outputs": [
        {
          "internalType": "address",
          "name": "winner",
          "type": "address"
        },
        {
          "internalType": "uint256",
          "name": "prize",
          "type": "uint256"
        },
        {
          "internalType": "uint256",
          "name": "timestamp",
          "type": "uint256"
        },
        {
          "internalType": "uint256",
          "name": "round",
          "type": "uint256"
        }
      ],
      "stateMutability": "view",
      "type": "function"
    },
    {
      "inputs": [
        {
          "internalType": "uint256",
          "name": "amount",
          "type": "uint256"
        }
      ],
      "name": "withdraw",
      "outputs": [],
      "stateMutability": "nonpayable",
      "type": "function"
    },
    {
      "stateMutability": "payable",
      "type": "receive"
    }
  ],
  "bytecode": "0x608060405234801561001057600080fd5b50604051611b87380380611b8783398101604081905261002f91610142565b836001600160a01b03811661005e57604051631e4fbdf760e01b81526000600482015260240160405180910390fd5b610067816100f2565b5060018080556002849055600483905560068290556005600a8190556009805460ff60a01b1916600160a01b179055600891909155600090556100aa834261018d565b60035560085460408051918252602082018390527f1a92f8260fbb9503d4da4de0b7753e04745a81b9a56dafcd9e51a7b828c16c73910160405180910390a1505050506101b4565b600080546001600160a01b038381166001600160a01b0319831681178455604051919092169283917f8be0079c531659141344cd1fd0a4f28419497f9722a3daafe3b4186f6b6457e09190a35050565b6000806000806080858703121561015857600080fd5b84516001600160a01b038116811461016f57600080fd5b60208601516040870151606090970151919890975090945092505050565b808201808211156101ae57634e487b7160e01b600052601160045260246000fd5b92915050565b6119c4806101c36000396000f3fe6080604052600436106101fd5760003560e01c8063715018a61161010d578063b7d0628b116100a0578063e4e988761161006f578063e4e988761461061d578063eb770d0c14610633578063f020044f14610653578063f2fde38b14610674578063f99800801461069457600080fd5b8063b7d0628b1461056f578063ccc08974146105c7578063db9f0676146105e7578063e3450e13146105fd57600080fd5b80638da5cb5b116100dc5780638da5cb5b146104f15780639119c13c14610523578063a2fb117514610539578063a5f9b5c21461055957600080fd5b8063715018a614610448578063719ce73e1461045d57806376a4956c1461047357806388b2f7c3146104e957600080fd5b8063290d9fcc11610190578063476c4af61161015f578063476c4af6146103c8578063482d51e0146103de5780635b2f06b4146103f35780636f9c2ab71461041357806370740ac91461043357600080fd5b8063290d9fcc1461035f5780632c489e3e146103755780632e1a7d4d1461038857806332e4809c146103a857600080fd5b80631c14f69f116101cc5780631c14f69f146102db578063203ad58614610308578063256bcaa01461032a57806328fd8fc41461033257600080fd5b8063072ea61c146102565780630b75cef41461027f5780630c16a29b146102945780631b97b5a3146102ab57600080fd5b3661025157346007600082825461021491906117c2565b90915550506007546040519081527f426fdd0d62c6e55ef3c2777ca815e26a25bcb62409bf493679b1810ef67f29109060200160405180910390a1005b600080fd5b34801561026257600080fd5b5061026c60045481565b6040519081526020015b60405180910390f35b34801561028b57600080fd5b50600c5461026c565b3480156102a057600080fd5b5061026c6201518081565b3480156102b757600080fd5b506102cb6102c63660046117d5565b6106a7565b6040519015158152602001610276565b3480156102e757600080fd5b5061026c6102f63660046117d5565b600b6020526000908152604090205481565b34801561031457600080fd5b50610328610323366004611805565b6106fe565b005b6103286107a5565b34801561033e57600080fd5b5061035261034d36600461181e565b610836565b6040516102769190611840565b34801561036b57600080fd5b5061026c60065481565b6103286103833660046118af565b6109a0565b34801561039457600080fd5b506103286103a3366004611805565b610b56565b3480156103b457600080fd5b506103286103c3366004611805565b610c07565b3480156103d457600080fd5b5061026c60075481565b3480156103ea57600080fd5b50610328610c44565b3480156103ff57600080fd5b5061035261040e366004611805565b610c56565b34801561041f57600080fd5b5061032861042e366004611805565b610dc1565b34801561043f57600080fd5b50610328610e4f565b34801561045457600080fd5b50610328611147565b34801561046957600080fd5b5061026c60055481565b34801561047f57600080fd5b506104bf61048e366004611805565b600d6020526000908152604090208054600182015460028301546003909301546001600160a01b0390921692909184565b604080516001600160a01b0390951685526020850193909352918301526060820152608001610276565b610328611159565b3480156104fd57600080fd5b506000546001600160a01b03165b6040516001600160a01b039091168152602001610276565b34801561052f57600080fd5b5061026c60025481565b34801561054557600080fd5b506104bf610554366004611805565b61119a565b34801561056557600080fd5b5061026c60085481565b34801561057b57600080fd5b506105846111de565b6040805197885260208801969096526001600160a01b03909416948601949094529015156060850152608084015260a083019190915260c082015260e001610276565b3480156105d357600080fd5b506103286105e23660046118af565b611231565b3480156105f357600080fd5b5061026c60035481565b34801561060957600080fd5b5060095461050b906001600160a01b031681565b34801561062957600080fd5b5061026c600a5481565b34801561063f57600080fd5b5061032861064e366004611805565b611286565b34801561065f57600080fd5b506009546102cb90600160a01b900460ff1681565b34801561068057600080fd5b5061032861068f3660046117d5565b6112c3565b6103286106a2366004611805565b6112fe565b6001600160a01b0381166000908152600b602052604081205481036106ce57506001919050565b6001600160a01b0382166000908152600b60205260409020546106f59062015180906117c2565b42101592915050565b61070661165e565b600081116107695760405162461bcd60e51b815260206004820152602560248201527f54696d6572206475726174696f6e206d75737420626520677265617465722074604482015264068616e20360dc1b60648201526084015b60405180910390fd5b60028190556040518181527fe7ffa30cb35b3b43cfe961cad93bb44760a282c7b8de6d11d9c512e73304556a906020015b60405180910390a150565b600034116107e65760405162461bcd60e51b815260206004820152600e60248201526d4d7573742073656e642043454c4f60901b6044820152606401610760565b34600760008282546107f891906117c2565b90915550506007546040519081527f426fdd0d62c6e55ef3c2777ca815e26a25bcb62409bf493679b1810ef67f2910906020015b60405180910390a1565b600c5460609080841061087d576040805160008082526020820190925290610874565b61086161177b565b8152602001906001900390816108595790505b5091505061099a565b600061088984866117c2565b9050818111156108965750805b60006108a286836118e7565b905060008167ffffffffffffffff8111156108bf576108bf6118d1565b6040519080825280602002602001820160405280156108f857816020015b6108e561177b565b8152602001906001900390816108dd5790505b50905060005b8281101561099357600c610912828a6117c2565b81548110610922576109226118fa565b600091825260209182902060408051608081018252600490930290910180546001600160a01b0316835260018101549383019390935260028301549082015260039091015460608201528251839083908110610980576109806118fa565b60209081029190910101526001016108fe565b5093505050505b92915050565b6109a861168b565b600954600160a01b900460ff166109d15760405162461bcd60e51b815260040161076090611910565b6003544210610a405760405162461bcd60e51b815260206004820152603560248201527f54696d6572206861732065787069726564202d206e65772067616d652077696c6044820152746c207374617274206175746f6d61746963616c6c7960581b6064820152608401610760565b6000818015610a535750610a53336106a7565b90508015610a7257336000908152600b60205260409020429055610adb565b6004543414610ac35760405162461bcd60e51b815260206004820152601a60248201527f496e636f727265637420656e7472792066656520616d6f756e740000000000006044820152606401610760565b3460056000828254610ad591906117c2565b90915550505b600254610ae890426117c2565b6003819055600980546001600160a01b0319163390811790915560055460408051938452602084019190915283151590830152907f988adb6afb3862cb9307e525f8c738abe3fdb98ce22191f2b3d67b2e7466dc319060600160405180910390a250610b5360018055565b50565b610b5e61165e565b610b6661168b565b600080546040516001600160a01b039091169083908381818185875af1925050503d8060008114610bb3576040519150601f19603f3d011682016040523d82523d6000602084013e610bb8565b606091505b5050905080610bfd5760405162461bcd60e51b815260206004820152601160248201527015da5d1a191c985dd85b0819985a5b1959607a1b6044820152606401610760565b50610b5360018055565b610c0f61165e565b60068190556040518181527f426348c7ebe5b0615587bcbdef4e4e98cd484057801b7cf9cf31096c6b0d1c4a9060200161079a565b610c4c61165e565b610c546116b5565b565b600c546060906000819003610c9e576040805160008082526020820190925290610c96565b610c8361177b565b815260200190600190039081610c7b5790505b509392505050565b6000838211610cae576000610cb8565b610cb884836118e7565b90506000610cc682846118e7565b905060008167ffffffffffffffff811115610ce357610ce36118d1565b604051908082528060200260200182016040528015610d1c57816020015b610d0961177b565b815260200190600190039081610d015790505b50905060005b82811015610db757600c610d3682866117c2565b81548110610d4657610d466118fa565b600091825260209182902060408051608081018252600490930290910180546001600160a01b0316835260018101549383019390935260028301549082015260039091015460608201528251839083908110610da457610da46118fa565b6020908102919091010152600101610d22565b5095945050505050565b610dc961165e565b6064811115610e1a5760405162461bcd60e51b815260206004820181905260248201527f4665652070657263656e746167652063616e6e6f7420657863656564203130306044820152606401610760565b600a8190556040518181527f6375cd11aaa32e689b1a6d2d5bb89c9dec64618fb0ff74cc9cd9d085dd7796c69060200161079a565b610e5761168b565b600954600160a01b900460ff16610e805760405162461bcd60e51b815260040161076090611910565b600354421015610ece5760405162461bcd60e51b8152602060048201526019602482015278151a5b595c881a185cc81b9bdd08195e1c1a5c9959081e595d603a1b6044820152606401610760565b6005546009546008546001600160a01b03909116908115801590610ef25750600083115b156111265760006064600a5485610f09919061193c565b610f139190611953565b90506000610f2182866118e7565b604080516080810182526001600160a01b03808816808352602080840186815242858701908152606086018b8152600c8054600181810183556000928352895160049092027fdf6966c971051c3d54ec59162606531493a51404a002842f56009d7e5cf4a8c781018054938b166001600160a01b031994851617905586517fdf6966c971051c3d54ec59162606531493a51404a002842f56009d7e5cf4a8c882015585517fdf6966c971051c3d54ec59162606531493a51404a002842f56009d7e5cf4a8c982015584517fdf6966c971051c3d54ec59162606531493a51404a002842f56009d7e5cf4a8ca909101558e8352600d9096528982208951815499169890911697909717875592519386019390935551600285015590516003939093019290925592519394509092909190849060006040518083038185875af1925050503d806000811461108f576040519150601f19603f3d011682016040523d82523d6000602084013e611094565b606091505b50509050806110dd5760405162461bcd60e51b8152602060048201526015602482015274141c9a5e99481d1c985b9cd9995c8819985a5b1959605a1b6044820152606401610760565b60408051848152602081018790526001600160a01b038816917fa64a67269ed742fa62fbd598346754ec285b938b4e9d51ec087bcd7886548792910160405180910390a2505050505b5050600060055550600980546001600160a01b0319169055610c5460018055565b61114f61165e565b610c54600061172b565b60003411610c545760405162461bcd60e51b815260206004820152600e60248201526d4d7573742073656e642043454c4f60901b6044820152606401610760565b600c81815481106111aa57600080fd5b600091825260209091206004909102018054600182015460028301546003909301546001600160a01b039092169350919084565b6003546005546009546008546007546001600160a01b03831692600160a01b900460ff169160009142871115611223574260035461121c91906118e7565b9250611228565b600092505b90919293949596565b61123961165e565b60098054821515600160a01b0260ff60a01b199091161790556040517ffc5e76d60c483e79ee18a38d792a63cc569f716fce9f2c04d20725dda4580fcb9061079a90831515815260200190565b61128e61165e565b60048190556040518181527fde6c295af150a0ecd2b5098c61bc2dc5882c1673e0f58c7dfcf0a81f7921cbca9060200161079a565b6112cb61165e565b6001600160a01b0381166112f557604051631e4fbdf760e01b815260006004820152602401610760565b610b538161172b565b61130661168b565b600954600160a01b900460ff1661132f5760405162461bcd60e51b815260040161076090611910565b60035442101561137d5760405162461bcd60e51b8152602060048201526019602482015278151a5b595c881a185cc81b9bdd08195e1c1a5c9959081e595d603a1b6044820152606401610760565b8034146113dd5760405162461bcd60e51b815260206004820152602860248201527f53656e742076616c7565206d757374206d617463682073706f6e736f727368696044820152671c08185b5bdd5b9d60c21b6064820152608401610760565b6005546009546008546001600160a01b039091169081158015906114015750600083115b156116355760006064600a5485611418919061193c565b6114229190611953565b9050600061143082866118e7565b604080516080810182526001600160a01b03808816808352602080840186815242858701908152606086018b8152600c8054600181810183556000928352895160049092027fdf6966c971051c3d54ec59162606531493a51404a002842f56009d7e5cf4a8c781018054938b166001600160a01b031994851617905586517fdf6966c971051c3d54ec59162606531493a51404a002842f56009d7e5cf4a8c882015585517fdf6966c971051c3d54ec59162606531493a51404a002842f56009d7e5cf4a8c982015584517fdf6966c971051c3d54ec59162606531493a51404a002842f56009d7e5cf4a8ca909101558e8352600d9096528982208951815499169890911697909717875592519386019390935551600285015590516003939093019290925592519394509092909190849060006040518083038185875af1925050503d806000811461159e576040519150601f19603f3d011682016040523d82523d6000602084013e6115a3565b606091505b50509050806115ec5760405162461bcd60e51b8152602060048201526015602482015274141c9a5e99481d1c985b9cd9995c8819985a5b1959605a1b6044820152606401610760565b60408051848152602081018790526001600160a01b038816917fa64a67269ed742fa62fbd598346754ec285b938b4e9d51ec087bcd7886548792910160405180910390a2505050505b6000600555600980546001600160a01b03191690556116526116b5565b505050610b5360018055565b6000546001600160a01b03163314610c545760405163118cdaa760e01b8152336004820152602401610760565b6002600154036116ae57604051633ee5aeb560e01b815260040160405180910390fd5b6002600155565b600880549060006116c583611975565b909155505047600555600980546001600160a01b03191690556002546116eb90426117c2565b6003556008546005546040517f1a92f8260fbb9503d4da4de0b7753e04745a81b9a56dafcd9e51a7b828c16c739261082c92908252602082015260400190565b600080546001600160a01b038381166001600160a01b0319831681178455604051919092169283917f8be0079c531659141344cd1fd0a4f28419497f9722a3daafe3b4186f6b6457e09190a35050565b604051806080016040528060006001600160a01b031681526020016000815260200160008152602001600081525090565b634e487b7160e01b600052601160045260246000fd5b8082018082111561099a5761099a6117ac565b6000602082840312156117e757600080fd5b81356001600160a01b03811681146117fe57600080fd5b9392505050565b60006020828403121561181757600080fd5b5035919050565b6000806040838503121561183157600080fd5b50508035926020909101359150565b602080825282518282018190526000918401906040840190835b818110156118a457835180516001600160a01b031684526020808201518186015260408083015190860152606091820151918501919091529093019260809092019160010161185a565b509095945050505050565b6000602082840312156118c157600080fd5b813580151581146117fe57600080fd5b634e487b7160e01b600052604160045260246000fd5b8181038181111561099a5761099a6117ac565b634e487b7160e01b600052603260045260246000fd5b60208082526012908201527147616d65206973206e6f742061637469766560701b604082015260600190565b808202811582820484141761099a5761099a6117ac565b60008261197057634e487b7160e01b600052601260045260246000fd5b500490565b600060018201611987576119876117ac565b506001019056fea264697066735822122077b173dd02e4221847f9ab96d55401bf2b875521082d11f7fe4023053125054164736f6c634300081c0033",
  "linkReferences": {},
  "deployedLinkReferences": {}
}