{
  "contracts/ButtonGame.sol": {
    "ButtonGame": {
      "abi": [
        {
          "inputs": [
            {
              "internalType": "address",
              "name": "initialOwner",
              "type": "address"
            },
            {
              "internalType": "uint256",
              "name": "_initialTimerDuration",
              "type": "uint256"
            },
            {
              "internalType": "uint256",
              "name": "_initialEntryFee",
              "type": "uint256"
            },
            {
              "internalType": "uint256",
              "name": "_initialPrizePool",
              "type": "uint256"
            }
          ],
          "stateMutability": "nonpayable",
          "type": "constructor"
        },
        {
          "inputs": [
            {
              "internalType": "address",
              "name": "owner",
              "type": "address"
            }
          ],
          "name": "OwnableInvalidOwner",
          "type": "error"
        },
        {
          "inputs": [
            {
              "internalType": "address",
              "name": "account",
              "type": "address"
            }
          ],
          "name": "OwnableUnauthorizedAccount",
          "type": "error"
        },
        {
          "inputs": [],
          "name": "ReentrancyGuardReentrantCall",
          "type": "error"
        },
        {
          "anonymous": false,
          "inputs": [
            {
              "indexed": true,
              "internalType": "address",
              "name": "player",
              "type": "address"
            },
            {
              "indexed": false,
              "internalType": "uint256",
              "name": "newTimerEnd",
              "type": "uint256"
            },
            {
              "indexed": false,
              "internalType": "uint256",
              "name": "newPrizePool",
              "type": "uint256"
            },
            {
              "indexed": false,
              "internalType": "bool",
              "name": "isFreePlay",
              "type": "bool"
            }
          ],
          "name": "ButtonPressed",
          "type": "event"
        },
        {
          "anonymous": false,
          "inputs": [
            {
              "indexed": false,
              "internalType": "uint256",
              "name": "newFee",
              "type": "uint256"
            }
          ],
          "name": "EntryFeeConfigured",
          "type": "event"
        },
        {
          "anonymous": false,
          "inputs": [
            {
              "indexed": false,
              "internalType": "bool",
              "name": "active",
              "type": "bool"
            }
          ],
          "name": "GameStatusChanged",
          "type": "event"
        },
        {
          "anonymous": false,
          "inputs": [
            {
              "indexed": false,
              "internalType": "uint256",
              "name": "newAmount",
              "type": "uint256"
            }
          ],
          "name": "InitialPrizePoolConfigured",
          "type": "event"
        },
        {
          "anonymous": false,
          "inputs": [
            {
              "indexed": false,
              "internalType": "uint256",
              "name": "round",
              "type": "uint256"
            },
            {
              "indexed": false,
              "internalType": "uint256",
              "name": "initialPrize",
              "type": "uint256"
            }
          ],
          "name": "NewGameStarted",
          "type": "event"
        },
        {
          "anonymous": false,
          "inputs": [
            {
              "indexed": true,
              "internalType": "address",
              "name": "previousOwner",
              "type": "address"
            },
            {
              "indexed": true,
              "internalType": "address",
              "name": "newOwner",
              "type": "address"
            }
          ],
          "name": "OwnershipTransferred",
          "type": "event"
        },
        {
          "anonymous": false,
          "inputs": [
            {
              "indexed": true,
              "internalType": "address",
              "name": "winner",
              "type": "address"
            },
            {
              "indexed": false,
              "internalType": "uint256",
              "name": "amount",
              "type": "uint256"
            },
            {
              "indexed": false,
              "internalType": "uint256",
              "name": "round",
              "type": "uint256"
            }
          ],
          "name": "PrizeWon",
          "type": "event"
        },
        {
          "anonymous": false,
          "inputs": [
            {
              "indexed": false,
              "internalType": "uint256",
              "name": "newAmount",
              "type": "uint256"
            }
          ],
          "name": "ProgressiveJackpotUpdated",
          "type": "event"
        },
        {
          "anonymous": false,
          "inputs": [
            {
              "indexed": false,
              "internalType": "uint256",
              "name": "newDuration",
              "type": "uint256"
            }
          ],
          "name": "TimerConfigured",
          "type": "event"
        },
        {
          "inputs": [],
          "name": "FREE_PLAY_COOLDOWN",
          "outputs": [
            {
              "internalType": "uint256",
              "name": "",
              "type": "uint256"
            }
          ],
          "stateMutability": "view",
          "type": "function"
        },
        {
          "inputs": [],
          "name": "addToJackpot",
          "outputs": [],
          "stateMutability": "payable",
          "type": "function"
        },
        {
          "inputs": [],
          "name": "claimPrize",
          "outputs": [],
          "stateMutability": "nonpayable",
          "type": "function"
        },
        {
          "inputs": [],
          "name": "entryFee",
          "outputs": [
            {
              "internalType": "uint256",
              "name": "",
              "type": "uint256"
            }
          ],
          "stateMutability": "view",
          "type": "function"
        },
        {
          "inputs": [],
          "name": "fundPrizePool",
          "outputs": [],
          "stateMutability": "payable",
          "type": "function"
        },
        {
          "inputs": [],
          "name": "gameActive",
          "outputs": [
            {
              "internalType": "bool",
              "name": "",
              "type": "bool"
            }
          ],
          "stateMutability": "view",
          "type": "function"
        },
        {
          "inputs": [],
          "name": "gameRound",
          "outputs": [
            {
              "internalType": "uint256",
              "name": "",
              "type": "uint256"
            }
          ],
          "stateMutability": "view",
          "type": "function"
        },
        {
          "inputs": [],
          "name": "getGameState",
          "outputs": [
            {
              "internalType": "uint256",
              "name": "_timerEnd",
              "type": "uint256"
            },
            {
              "internalType": "uint256",
              "name": "_prizePool",
              "type": "uint256"
            },
            {
              "internalType": "address",
              "name": "_lastPlayer",
              "type": "address"
            },
            {
              "internalType": "bool",
              "name": "_gameActive",
              "type": "bool"
            },
            {
              "internalType": "uint256",
              "name": "_timeRemaining",
              "type": "uint256"
            },
            {
              "internalType": "uint256",
              "name": "_currentRound",
              "type": "uint256"
            },
            {
              "internalType": "uint256",
              "name": "_progressiveJackpot",
              "type": "uint256"
            }
          ],
          "stateMutability": "view",
          "type": "function"
        },
        {
          "inputs": [
            {
              "internalType": "uint256",
              "name": "count",
              "type": "uint256"
            }
          ],
          "name": "getLatestWinners",
          "outputs": [
            {
              "components": [
                {
                  "internalType": "address",
                  "name": "winner",
                  "type": "address"
                },
                {
                  "internalType": "uint256",
                  "name": "prize",
                  "type": "uint256"
                },
                {
                  "internalType": "uint256",
                  "name": "timestamp",
                  "type": "uint256"
                },
                {
                  "internalType": "uint256",
                  "name": "round",
                  "type": "uint256"
                }
              ],
              "internalType": "struct ButtonGame.WinnerInfo[]",
              "name": "",
              "type": "tuple[]"
            }
          ],
          "stateMutability": "view",
          "type": "function"
        },
        {
          "inputs": [
            {
              "internalType": "uint256",
              "name": "fromIndex",
              "type": "uint256"
            },
            {
              "internalType": "uint256",
              "name": "count",
              "type": "uint256"
            }
          ],
          "name": "getWinners",
          "outputs": [
            {
              "components": [
                {
                  "internalType": "address",
                  "name": "winner",
                  "type": "address"
                },
                {
                  "internalType": "uint256",
                  "name": "prize",
                  "type": "uint256"
                },
                {
                  "internalType": "uint256",
                  "name": "timestamp",
                  "type": "uint256"
                },
                {
                  "internalType": "uint256",
                  "name": "round",
                  "type": "uint256"
                }
              ],
              "internalType": "struct ButtonGame.WinnerInfo[]",
              "name": "",
              "type": "tuple[]"
            }
          ],
          "stateMutability": "view",
          "type": "function"
        },
        {
          "inputs": [],
          "name": "getWinnersCount",
          "outputs": [
            {
              "internalType": "uint256",
              "name": "",
              "type": "uint256"
            }
          ],
          "stateMutability": "view",
          "type": "function"
        },
        {
          "inputs": [],
          "name": "initialPrizePool",
          "outputs": [
            {
              "internalType": "uint256",
              "name": "",
              "type": "uint256"
            }
          ],
          "stateMutability": "view",
          "type": "function"
        },
        {
          "inputs": [
            {
              "internalType": "address",
              "name": "user",
              "type": "address"
            }
          ],
          "name": "isEligibleForFreePlay",
          "outputs": [
            {
              "internalType": "bool",
              "name": "",
              "type": "bool"
            }
          ],
          "stateMutability": "view",
          "type": "function"
        },
        {
          "inputs": [
            {
              "internalType": "address",
              "name": "",
              "type": "address"
            }
          ],
          "name": "lastFreePlay",
          "outputs": [
            {
              "internalType": "uint256",
              "name": "",
              "type": "uint256"
            }
          ],
          "stateMutability": "view",
          "type": "function"
        },
        {
          "inputs": [],
          "name": "lastPlayer",
          "outputs": [
            {
              "internalType": "address",
              "name": "",
              "type": "address"
            }
          ],
          "stateMutability": "view",
          "type": "function"
        },
        {
          "inputs": [],
          "name": "owner",
          "outputs": [
            {
              "internalType": "address",
              "name": "",
              "type": "address"
            }
          ],
          "stateMutability": "view",
          "type": "function"
        },
        {
          "inputs": [
            {
              "internalType": "bool",
              "name": "useFreePlay",
              "type": "bool"
            }
          ],
          "name": "pressButton",
          "outputs": [],
          "stateMutability": "payable",
          "type": "function"
        },
        {
          "inputs": [],
          "name": "prizePool",
          "outputs": [
            {
              "internalType": "uint256",
              "name": "",
              "type": "uint256"
            }
          ],
          "stateMutability": "view",
          "type": "function"
        },
        {
          "inputs": [],
          "name": "progressiveJackpot",
          "outputs": [
            {
              "internalType": "uint256",
              "name": "",
              "type": "uint256"
            }
          ],
          "stateMutability": "view",
          "type": "function"
        },
        {
          "inputs": [],
          "name": "renounceOwnership",
          "outputs": [],
          "stateMutability": "nonpayable",
          "type": "function"
        },
        {
          "inputs": [
            {
              "internalType": "uint256",
              "name": "",
              "type": "uint256"
            }
          ],
          "name": "roundWinners",
          "outputs": [
            {
              "internalType": "address",
              "name": "winner",
              "type": "address"
            },
            {
              "internalType": "uint256",
              "name": "prize",
              "type": "uint256"
            },
            {
              "internalType": "uint256",
              "name": "timestamp",
              "type": "uint256"
            },
            {
              "internalType": "uint256",
              "name": "round",
              "type": "uint256"
            }
          ],
          "stateMutability": "view",
          "type": "function"
        },
        {
          "inputs": [
            {
              "internalType": "uint256",
              "name": "_newFee",
              "type": "uint256"
            }
          ],
          "name": "setEntryFee",
          "outputs": [],
          "stateMutability": "nonpayable",
          "type": "function"
        },
        {
          "inputs": [
            {
              "internalType": "bool",
              "name": "_active",
              "type": "bool"
            }
          ],
          "name": "setGameActive",
          "outputs": [],
          "stateMutability": "nonpayable",
          "type": "function"
        },
        {
          "inputs": [
            {
              "internalType": "uint256",
              "name": "_newAmount",
              "type": "uint256"
            }
          ],
          "name": "setInitialPrizePool",
          "outputs": [],
          "stateMutability": "nonpayable",
          "type": "function"
        },
        {
          "inputs": [
            {
              "internalType": "uint256",
              "name": "_newDuration",
              "type": "uint256"
            }
          ],
          "name": "setTimerDuration",
          "outputs": [],
          "stateMutability": "nonpayable",
          "type": "function"
        },
        {
          "inputs": [],
          "name": "startNewGame",
          "outputs": [],
          "stateMutability": "nonpayable",
          "type": "function"
        },
        {
          "inputs": [],
          "name": "timerDuration",
          "outputs": [
            {
              "internalType": "uint256",
              "name": "",
              "type": "uint256"
            }
          ],
          "stateMutability": "view",
          "type": "function"
        },
        {
          "inputs": [],
          "name": "timerEnd",
          "outputs": [
            {
              "internalType": "uint256",
              "name": "",
              "type": "uint256"
            }
          ],
          "stateMutability": "view",
          "type": "function"
        },
        {
          "inputs": [
            {
              "internalType": "address",
              "name": "newOwner",
              "type": "address"
            }
          ],
          "name": "transferOwnership",
          "outputs": [],
          "stateMutability": "nonpayable",
          "type": "function"
        },
        {
          "inputs": [
            {
              "internalType": "uint256",
              "name": "",
              "type": "uint256"
            }
          ],
          "name": "winners",
          "outputs": [
            {
              "internalType": "address",
              "name": "winner",
              "type": "address"
            },
            {
              "internalType": "uint256",
              "name": "prize",
              "type": "uint256"
            },
            {
              "internalType": "uint256",
              "name": "timestamp",
              "type": "uint256"
            },
            {
              "internalType": "uint256",
              "name": "round",
              "type": "uint256"
            }
          ],
          "stateMutability": "view",
          "type": "function"
        },
        {
          "inputs": [
            {
              "internalType": "uint256",
              "name": "amount",
              "type": "uint256"
            }
          ],
          "name": "withdraw",
          "outputs": [],
          "stateMutability": "nonpayable",
          "type": "function"
        },
        {
          "stateMutability": "payable",
          "type": "receive"
        }
      ],
      "evm": {
        "bytecode": {
          "linkReferences": {},
          "object": "608060405234801561001057600080fd5b506040516116e63803806116e683398101604081905261002f91610139565b836001600160a01b03811661005e57604051631e4fbdf760e01b81526000600482015260240160405180910390fd5b610067816100e9565b5060018080556002849055600483905560068290556009805460ff60a01b1916600160a01b17905560085560006005556100a18342610184565b60035560085460408051918252602082018390527f1a92f8260fbb9503d4da4de0b7753e04745a81b9a56dafcd9e51a7b828c16c73910160405180910390a1505050506101ab565b600080546001600160a01b038381166001600160a01b0319831681178455604051919092169283917f8be0079c531659141344cd1fd0a4f28419497f9722a3daafe3b4186f6b6457e09190a35050565b6000806000806080858703121561014f57600080fd5b84516001600160a01b038116811461016657600080fd5b60208601516040870151606090970151919890975090945092505050565b808201808211156101a557634e487b7160e01b600052601160045260246000fd5b92915050565b61152c806101ba6000396000f3fe6080604052600436106101dc5760003560e01c806370740ac911610102578063a5f9b5c211610095578063e3450e1311610064578063e3450e13146105bc578063eb770d0c146105dc578063f020044f146105fc578063f2fde38b1461061d57600080fd5b8063a5f9b5c214610518578063b7d0628b1461052e578063ccc0897414610586578063db9f0676146105a657600080fd5b806388b2f7c3116100d157806388b2f7c3146104a85780638da5cb5b146104b05780639119c13c146104e2578063a2fb1175146104f857600080fd5b806370740ac9146103f2578063715018a614610407578063719ce73e1461041c57806376a4956c1461043257600080fd5b806328fd8fc41161017a57806332e4809c1161014957806332e4809c14610387578063476c4af6146103a7578063482d51e0146103bd5780635b2f06b4146103d257600080fd5b806328fd8fc414610311578063290d9fcc1461033e5780632c489e3e146103545780632e1a7d4d1461036757600080fd5b80631b97b5a3116101b65780631b97b5a31461028a5780631c14f69f146102ba578063203ad586146102e7578063256bcaa01461030957600080fd5b8063072ea61c146102355780630b75cef41461025e5780630c16a29b1461027357600080fd5b366102305734600760008282546101f3919061138f565b90915550506007546040519081527f426fdd0d62c6e55ef3c2777ca815e26a25bcb62409bf493679b1810ef67f29109060200160405180910390a1005b600080fd5b34801561024157600080fd5b5061024b60045481565b6040519081526020015b60405180910390f35b34801561026a57600080fd5b50600b5461024b565b34801561027f57600080fd5b5061024b6201518081565b34801561029657600080fd5b506102aa6102a53660046113a2565b61063d565b6040519015158152602001610255565b3480156102c657600080fd5b5061024b6102d53660046113a2565b600a6020526000908152604090205481565b3480156102f357600080fd5b506103076103023660046113d2565b610694565b005b61030761073b565b34801561031d57600080fd5b5061033161032c3660046113eb565b6107cb565b604051610255919061140d565b34801561034a57600080fd5b5061024b60065481565b61030761036236600461147c565b610935565b34801561037357600080fd5b506103076103823660046113d2565b610b10565b34801561039357600080fd5b506103076103a23660046113d2565b610bc1565b3480156103b357600080fd5b5061024b60075481565b3480156103c957600080fd5b50610307610bfe565b3480156103de57600080fd5b506103316103ed3660046113d2565b610c10565b3480156103fe57600080fd5b50610307610d7b565b34801561041357600080fd5b5061030761105f565b34801561042857600080fd5b5061024b60055481565b34801561043e57600080fd5b5061047e61044d3660046113d2565b600c6020526000908152604090208054600182015460028301546003909301546001600160a01b0390921692909184565b604080516001600160a01b0390951685526020850193909352918301526060820152608001610255565b610307611071565b3480156104bc57600080fd5b506000546001600160a01b03165b6040516001600160a01b039091168152602001610255565b3480156104ee57600080fd5b5061024b60025481565b34801561050457600080fd5b5061047e6105133660046113d2565b6110b2565b34801561052457600080fd5b5061024b60085481565b34801561053a57600080fd5b506105436110f6565b6040805197885260208801969096526001600160a01b03909416948601949094529015156060850152608084015260a083019190915260c082015260e001610255565b34801561059257600080fd5b506103076105a136600461147c565b611149565b3480156105b257600080fd5b5061024b60035481565b3480156105c857600080fd5b506009546104ca906001600160a01b031681565b3480156105e857600080fd5b506103076105f73660046113d2565b61119e565b34801561060857600080fd5b506009546102aa90600160a01b900460ff1681565b34801561062957600080fd5b506103076106383660046113a2565b6111db565b6001600160a01b0381166000908152600a6020526040812054810361066457506001919050565b6001600160a01b0382166000908152600a602052604090205461068b90620151809061138f565b42101592915050565b61069c611216565b600081116106ff5760405162461bcd60e51b815260206004820152602560248201527f54696d6572206475726174696f6e206d75737420626520677265617465722074604482015264068616e20360dc1b60648201526084015b60405180910390fd5b60028190556040518181527fe7ffa30cb35b3b43cfe961cad93bb44760a282c7b8de6d11d9c512e73304556a906020015b60405180910390a150565b6000341161077c5760405162461bcd60e51b815260206004820152600e60248201526d4d7573742073656e642043454c4f60901b60448201526064016106f6565b346007600082825461078e919061138f565b90915550506007546040519081527f426fdd0d62c6e55ef3c2777ca815e26a25bcb62409bf493679b1810ef67f29109060200160405180910390a1565b600b54606090808410610812576040805160008082526020820190925290610809565b6107f6611348565b8152602001906001900390816107ee5790505b5091505061092f565b600061081e848661138f565b90508181111561082b5750805b600061083786836114b4565b905060008167ffffffffffffffff8111156108545761085461149e565b60405190808252806020026020018201604052801561088d57816020015b61087a611348565b8152602001906001900390816108725790505b50905060005b8281101561092857600b6108a7828a61138f565b815481106108b7576108b76114c7565b600091825260209182902060408051608081018252600490930290910180546001600160a01b0316835260018101549383019390935260028301549082015260039091015460608201528251839083908110610915576109156114c7565b6020908102919091010152600101610893565b5093505050505b92915050565b61093d611243565b600954600160a01b900460ff1661098b5760405162461bcd60e51b815260206004820152601260248201527147616d65206973206e6f742061637469766560701b60448201526064016106f6565b60035442106109fa5760405162461bcd60e51b815260206004820152603560248201527f54696d6572206861732065787069726564202d206e65772067616d652077696c6044820152746c207374617274206175746f6d61746963616c6c7960581b60648201526084016106f6565b6000818015610a0d5750610a0d3361063d565b90508015610a2c57336000908152600a60205260409020429055610a95565b6004543414610a7d5760405162461bcd60e51b815260206004820152601a60248201527f496e636f727265637420656e7472792066656520616d6f756e7400000000000060448201526064016106f6565b3460056000828254610a8f919061138f565b90915550505b600254610aa2904261138f565b6003819055600980546001600160a01b0319163390811790915560055460408051938452602084019190915283151590830152907f988adb6afb3862cb9307e525f8c738abe3fdb98ce22191f2b3d67b2e7466dc319060600160405180910390a250610b0d60018055565b50565b610b18611216565b610b20611243565b600080546040516001600160a01b039091169083908381818185875af1925050503d8060008114610b6d576040519150601f19603f3d011682016040523d82523d6000602084013e610b72565b606091505b5050905080610bb75760405162461bcd60e51b815260206004820152601160248201527015da5d1a191c985dd85b0819985a5b1959607a1b60448201526064016106f6565b50610b0d60018055565b610bc9611216565b60068190556040518181527f426348c7ebe5b0615587bcbdef4e4e98cd484057801b7cf9cf31096c6b0d1c4a90602001610730565b610c06611216565b610c0e61126d565b565b600b546060906000819003610c58576040805160008082526020820190925290610c50565b610c3d611348565b815260200190600190039081610c355790505b509392505050565b6000838211610c68576000610c72565b610c7284836114b4565b90506000610c8082846114b4565b905060008167ffffffffffffffff811115610c9d57610c9d61149e565b604051908082528060200260200182016040528015610cd657816020015b610cc3611348565b815260200190600190039081610cbb5790505b50905060005b82811015610d7157600b610cf0828661138f565b81548110610d0057610d006114c7565b600091825260209182902060408051608081018252600490930290910180546001600160a01b0316835260018101549383019390935260028301549082015260039091015460608201528251839083908110610d5e57610d5e6114c7565b6020908102919091010152600101610cdc565b5095945050505050565b610d83611243565b600954600160a01b900460ff16610dd15760405162461bcd60e51b815260206004820152601260248201527147616d65206973206e6f742061637469766560701b60448201526064016106f6565b600354421015610e235760405162461bcd60e51b815260206004820152601960248201527f54696d657220686173206e6f742065787069726564207965740000000000000060448201526064016106f6565b6005546009546008546001600160a01b03909116908115801590610e475750600083115b1561104b57604080516080810182526001600160a01b0380851680835260208084018881524285870190815260608601888152600b8054600181810183556000928352895160049092027f0175b7a638427703f0dbe7bb9bbf987a2551717b34e79f33b5b1008d1fa01db981018054938b166001600160a01b031994851617905586517f0175b7a638427703f0dbe7bb9bbf987a2551717b34e79f33b5b1008d1fa01dba82015585517f0175b7a638427703f0dbe7bb9bbf987a2551717b34e79f33b5b1008d1fa01dbb82015584517f0175b7a638427703f0dbe7bb9bbf987a2551717b34e79f33b5b1008d1fa01dbc909101558b8352600c90965289822089518154991698909116979097178755925193860193909355516002850155905160039390930192909255925191929091869060006040518083038185875af1925050503d8060008114610fb6576040519150601f19603f3d011682016040523d82523d6000602084013e610fbb565b606091505b50509050806110045760405162461bcd60e51b8152602060048201526015602482015274141c9a5e99481d1c985b9cd9995c8819985a5b1959605a1b60448201526064016106f6565b60408051868152602081018590526001600160a01b038616917fa64a67269ed742fa62fbd598346754ec285b938b4e9d51ec087bcd7886548792910160405180910390a250505b61105361126d565b505050610c0e60018055565b611067611216565b610c0e60006112f8565b60003411610c0e5760405162461bcd60e51b815260206004820152600e60248201526d4d7573742073656e642043454c4f60901b60448201526064016106f6565b600b81815481106110c257600080fd5b600091825260209091206004909102018054600182015460028301546003909301546001600160a01b039092169350919084565b6003546005546009546008546007546001600160a01b03831692600160a01b900460ff16916000914287111561113b574260035461113491906114b4565b9250611140565b600092505b90919293949596565b611151611216565b60098054821515600160a01b0260ff60a01b199091161790556040517ffc5e76d60c483e79ee18a38d792a63cc569f716fce9f2c04d20725dda4580fcb9061073090831515815260200190565b6111a6611216565b60048190556040518181527fde6c295af150a0ecd2b5098c61bc2dc5882c1673e0f58c7dfcf0a81f7921cbca90602001610730565b6111e3611216565b6001600160a01b03811661120d57604051631e4fbdf760e01b8152600060048201526024016106f6565b610b0d816112f8565b6000546001600160a01b03163314610c0e5760405163118cdaa760e01b81523360048201526024016106f6565b60026001540361126657604051633ee5aeb560e01b815260040160405180910390fd5b6002600155565b6008805490600061127d836114dd565b909155505060065447908110156112945780611298565b6006545b600555600980546001600160a01b03191690556002546112b8904261138f565b6003556008546005546040517f1a92f8260fbb9503d4da4de0b7753e04745a81b9a56dafcd9e51a7b828c16c739261073092908252602082015260400190565b600080546001600160a01b038381166001600160a01b0319831681178455604051919092169283917f8be0079c531659141344cd1fd0a4f28419497f9722a3daafe3b4186f6b6457e09190a35050565b604051806080016040528060006001600160a01b031681526020016000815260200160008152602001600081525090565b634e487b7160e01b600052601160045260246000fd5b8082018082111561092f5761092f611379565b6000602082840312156113b457600080fd5b81356001600160a01b03811681146113cb57600080fd5b9392505050565b6000602082840312156113e457600080fd5b5035919050565b600080604083850312156113fe57600080fd5b50508035926020909101359150565b602080825282518282018190526000918401906040840190835b8181101561147157835180516001600160a01b0316845260208082015181860152604080830151908601526060918201519185019190915290930192608090920191600101611427565b509095945050505050565b60006020828403121561148e57600080fd5b813580151581146113cb57600080fd5b634e487b7160e01b600052604160045260246000fd5b8181038181111561092f5761092f611379565b634e487b7160e01b600052603260045260246000fd5b6000600182016114ef576114ef611379565b506001019056fea26469706673582212207413eec36407036e44462af7c74288bc0d1d35f2996bcc81a4f9059148d3de3e64736f6c634300081c0033",
          "opcodes": "PUSH1 0x80 PUSH1 0x40 MSTORE CALLVALUE DUP1 ISZERO PUSH2 0x10 JUMPI PUSH1 0x0 DUP1 REVERT JUMPDEST POP PUSH1 0x40 MLOAD PUSH2 0x16E6 CODESIZE SUB DUP1 PUSH2 0x16E6 DUP4 CODECOPY DUP2 ADD PUSH1 0x40 DUP2 SWAP1 MSTORE PUSH2 0x2F SWAP2 PUSH2 0x139 JUMP JUMPDEST DUP4 PUSH1 0x1 PUSH1 0x1 PUSH1 0xA0 SHL SUB DUP2 AND PUSH2 0x5E JUMPI PUSH1 0x40 MLOAD PUSH4 0x1E4FBDF7 PUSH1 0xE0 SHL DUP2 MSTORE PUSH1 0x0 PUSH1 0x4 DUP3 ADD MSTORE PUSH1 0x24 ADD PUSH1 0x40 MLOAD DUP1 SWAP2 SUB SWAP1 REVERT JUMPDEST PUSH2 0x67 DUP2 PUSH2 0xE9 JUMP JUMPDEST POP PUSH1 0x1 DUP1 DUP1 SSTORE PUSH1 0x2 DUP5 SWAP1 SSTORE PUSH1 0x4 DUP4 SWAP1 SSTORE PUSH1 0x6 DUP3 SWAP1 SSTORE PUSH1 0x9 DUP1 SLOAD PUSH1 0xFF PUSH1 0xA0 SHL NOT AND PUSH1 0x1 PUSH1 0xA0 SHL OR SWAP1 SSTORE PUSH1 0x8 SSTORE PUSH1 0x0 PUSH1 0x5 SSTORE PUSH2 0xA1 DUP4 TIMESTAMP PUSH2 0x184 JUMP JUMPDEST PUSH1 0x3 SSTORE PUSH1 0x8 SLOAD PUSH1 0x40 DUP1 MLOAD SWAP2 DUP3 MSTORE PUSH1 0x20 DUP3 ADD DUP4 SWAP1 MSTORE PUSH32 0x1A92F8260FBB9503D4DA4DE0B7753E04745A81B9A56DAFCD9E51A7B828C16C73 SWAP2 ADD PUSH1 0x40 MLOAD DUP1 SWAP2 SUB SWAP1 LOG1 POP POP POP POP PUSH2 0x1AB JUMP JUMPDEST PUSH1 0x0 DUP1 SLOAD PUSH1 0x1 PUSH1 0x1 PUSH1 0xA0 SHL SUB DUP4 DUP2 AND PUSH1 0x1 PUSH1 0x1 PUSH1 0xA0 SHL SUB NOT DUP4 AND DUP2 OR DUP5 SSTORE PUSH1 0x40 MLOAD SWAP2 SWAP1 SWAP3 AND SWAP3 DUP4 SWAP2 PUSH32 0x8BE0079C531659141344CD1FD0A4F28419497F9722A3DAAFE3B4186F6B6457E0 SWAP2 SWAP1 LOG3 POP POP JUMP JUMPDEST PUSH1 0x0 DUP1 PUSH1 0x0 DUP1 PUSH1 0x80 DUP6 DUP8 SUB SLT ISZERO PUSH2 0x14F JUMPI PUSH1 0x0 DUP1 REVERT JUMPDEST DUP5 MLOAD PUSH1 0x1 PUSH1 0x1 PUSH1 0xA0 SHL SUB DUP2 AND DUP2 EQ PUSH2 0x166 JUMPI PUSH1 0x0 DUP1 REVERT JUMPDEST PUSH1 0x20 DUP7 ADD MLOAD PUSH1 0x40 DUP8 ADD MLOAD PUSH1 0x60 SWAP1 SWAP8 ADD MLOAD SWAP2 SWAP9 SWAP1 SWAP8 POP SWAP1 SWAP5 POP SWAP3 POP POP POP JUMP JUMPDEST DUP1 DUP3 ADD DUP1 DUP3 GT ISZERO PUSH2 0x1A5 JUMPI PUSH4 0x4E487B71 PUSH1 0xE0 SHL PUSH1 0x0 MSTORE PUSH1 0x11 PUSH1 0x4 MSTORE PUSH1 0x24 PUSH1 0x0 REVERT JUMPDEST SWAP3 SWAP2 POP POP JUMP JUMPDEST PUSH2 0x152C DUP1 PUSH2 0x1BA PUSH1 0x0 CODECOPY PUSH1 0x0 RETURN INVALID PUSH1 0x80 PUSH1 0x40 MSTORE PUSH1 0x4 CALLDATASIZE LT PUSH2 0x1DC JUMPI PUSH1 0x0 CALLDATALOAD PUSH1 0xE0 SHR DUP1 PUSH4 0x70740AC9 GT PUSH2 0x102 JUMPI DUP1 PUSH4 0xA5F9B5C2 GT PUSH2 0x95 JUMPI DUP1 PUSH4 0xE3450E13 GT PUSH2 0x64 JUMPI DUP1 PUSH4 0xE3450E13 EQ PUSH2 0x5BC JUMPI DUP1 PUSH4 0xEB770D0C EQ PUSH2 0x5DC JUMPI DUP1 PUSH4 0xF020044F EQ PUSH2 0x5FC JUMPI DUP1 PUSH4 0xF2FDE38B EQ PUSH2 0x61D JUMPI PUSH1 0x0 DUP1 REVERT JUMPDEST DUP1 PUSH4 0xA5F9B5C2 EQ PUSH2 0x518 JUMPI DUP1 PUSH4 0xB7D0628B EQ PUSH2 0x52E JUMPI DUP1 PUSH4 0xCCC08974 EQ PUSH2 0x586 JUMPI DUP1 PUSH4 0xDB9F0676 EQ PUSH2 0x5A6 JUMPI PUSH1 0x0 DUP1 REVERT JUMPDEST DUP1 PUSH4 0x88B2F7C3 GT PUSH2 0xD1 JUMPI DUP1 PUSH4 0x88B2F7C3 EQ PUSH2 0x4A8 JUMPI DUP1 PUSH4 0x8DA5CB5B EQ PUSH2 0x4B0 JUMPI DUP1 PUSH4 0x9119C13C EQ PUSH2 0x4E2 JUMPI DUP1 PUSH4 0xA2FB1175 EQ PUSH2 0x4F8 JUMPI PUSH1 0x0 DUP1 REVERT JUMPDEST DUP1 PUSH4 0x70740AC9 EQ PUSH2 0x3F2 JUMPI DUP1 PUSH4 0x715018A6 EQ PUSH2 0x407 JUMPI DUP1 PUSH4 0x719CE73E EQ PUSH2 0x41C JUMPI DUP1 PUSH4 0x76A4956C EQ PUSH2 0x432 JUMPI PUSH1 0x0 DUP1 REVERT JUMPDEST DUP1 PUSH4 0x28FD8FC4 GT PUSH2 0x17A JUMPI DUP1 PUSH4 0x32E4809C GT PUSH2 0x149 JUMPI DUP1 PUSH4 0x32E4809C EQ PUSH2 0x387 JUMPI DUP1 PUSH4 0x476C4AF6 EQ PUSH2 0x3A7 JUMPI DUP1 PUSH4 0x482D51E0 EQ PUSH2 0x3BD JUMPI DUP1 PUSH4 0x5B2F06B4 EQ PUSH2 0x3D2 JUMPI PUSH1 0x0 DUP1 REVERT JUMPDEST DUP1 PUSH4 0x28FD8FC4 EQ PUSH2 0x311 JUMPI DUP1 PUSH4 0x290D9FCC EQ PUSH2 0x33E JUMPI DUP1 PUSH4 0x2C489E3E EQ PUSH2 0x354 JUMPI DUP1 PUSH4 0x2E1A7D4D EQ PUSH2 0x367 JUMPI PUSH1 0x0 DUP1 REVERT JUMPDEST DUP1 PUSH4 0x1B97B5A3 GT PUSH2 0x1B6 JUMPI DUP1 PUSH4 0x1B97B5A3 EQ PUSH2 0x28A JUMPI DUP1 PUSH4 0x1C14F69F EQ PUSH2 0x2BA JUMPI DUP1 PUSH4 0x203AD586 EQ PUSH2 0x2E7 JUMPI DUP1 PUSH4 0x256BCAA0 EQ PUSH2 0x309 JUMPI PUSH1 0x0 DUP1 REVERT JUMPDEST DUP1 PUSH4 0x72EA61C EQ PUSH2 0x235 JUMPI DUP1 PUSH4 0xB75CEF4 EQ PUSH2 0x25E JUMPI DUP1 PUSH4 0xC16A29B EQ PUSH2 0x273 JUMPI PUSH1 0x0 DUP1 REVERT JUMPDEST CALLDATASIZE PUSH2 0x230 JUMPI CALLVALUE PUSH1 0x7 PUSH1 0x0 DUP3 DUP3 SLOAD PUSH2 0x1F3 SWAP2 SWAP1 PUSH2 0x138F JUMP JUMPDEST SWAP1 SWAP2 SSTORE POP POP PUSH1 0x7 SLOAD PUSH1 0x40 MLOAD SWAP1 DUP2 MSTORE PUSH32 0x426FDD0D62C6E55EF3C2777CA815E26A25BCB62409BF493679B1810EF67F2910 SWAP1 PUSH1 0x20 ADD PUSH1 0x40 MLOAD DUP1 SWAP2 SUB SWAP1 LOG1 STOP JUMPDEST PUSH1 0x0 DUP1 REVERT JUMPDEST CALLVALUE DUP1 ISZERO PUSH2 0x241 JUMPI PUSH1 0x0 DUP1 REVERT JUMPDEST POP PUSH2 0x24B PUSH1 0x4 SLOAD DUP2 JUMP JUMPDEST PUSH1 0x40 MLOAD SWAP1 DUP2 MSTORE PUSH1 0x20 ADD JUMPDEST PUSH1 0x40 MLOAD DUP1 SWAP2 SUB SWAP1 RETURN JUMPDEST CALLVALUE DUP1 ISZERO PUSH2 0x26A JUMPI PUSH1 0x0 DUP1 REVERT JUMPDEST POP PUSH1 0xB SLOAD PUSH2 0x24B JUMP JUMPDEST CALLVALUE DUP1 ISZERO PUSH2 0x27F JUMPI PUSH1 0x0 DUP1 REVERT JUMPDEST POP PUSH2 0x24B PUSH3 0x15180 DUP2 JUMP JUMPDEST CALLVALUE DUP1 ISZERO PUSH2 0x296 JUMPI PUSH1 0x0 DUP1 REVERT JUMPDEST POP PUSH2 0x2AA PUSH2 0x2A5 CALLDATASIZE PUSH1 0x4 PUSH2 0x13A2 JUMP JUMPDEST PUSH2 0x63D JUMP JUMPDEST PUSH1 0x40 MLOAD SWAP1 ISZERO ISZERO DUP2 MSTORE PUSH1 0x20 ADD PUSH2 0x255 JUMP JUMPDEST CALLVALUE DUP1 ISZERO PUSH2 0x2C6 JUMPI PUSH1 0x0 DUP1 REVERT JUMPDEST POP PUSH2 0x24B PUSH2 0x2D5 CALLDATASIZE PUSH1 0x4 PUSH2 0x13A2 JUMP JUMPDEST PUSH1 0xA PUSH1 0x20 MSTORE PUSH1 0x0 SWAP1 DUP2 MSTORE PUSH1 0x40 SWAP1 KECCAK256 SLOAD DUP2 JUMP JUMPDEST CALLVALUE DUP1 ISZERO PUSH2 0x2F3 JUMPI PUSH1 0x0 DUP1 REVERT JUMPDEST POP PUSH2 0x307 PUSH2 0x302 CALLDATASIZE PUSH1 0x4 PUSH2 0x13D2 JUMP JUMPDEST PUSH2 0x694 JUMP JUMPDEST STOP JUMPDEST PUSH2 0x307 PUSH2 0x73B JUMP JUMPDEST CALLVALUE DUP1 ISZERO PUSH2 0x31D JUMPI PUSH1 0x0 DUP1 REVERT JUMPDEST POP PUSH2 0x331 PUSH2 0x32C CALLDATASIZE PUSH1 0x4 PUSH2 0x13EB JUMP JUMPDEST PUSH2 0x7CB JUMP JUMPDEST PUSH1 0x40 MLOAD PUSH2 0x255 SWAP2 SWAP1 PUSH2 0x140D JUMP JUMPDEST CALLVALUE DUP1 ISZERO PUSH2 0x34A JUMPI PUSH1 0x0 DUP1 REVERT JUMPDEST POP PUSH2 0x24B PUSH1 0x6 SLOAD DUP2 JUMP JUMPDEST PUSH2 0x307 PUSH2 0x362 CALLDATASIZE PUSH1 0x4 PUSH2 0x147C JUMP JUMPDEST PUSH2 0x935 JUMP JUMPDEST CALLVALUE DUP1 ISZERO PUSH2 0x373 JUMPI PUSH1 0x0 DUP1 REVERT JUMPDEST POP PUSH2 0x307 PUSH2 0x382 CALLDATASIZE PUSH1 0x4 PUSH2 0x13D2 JUMP JUMPDEST PUSH2 0xB10 JUMP JUMPDEST CALLVALUE DUP1 ISZERO PUSH2 0x393 JUMPI PUSH1 0x0 DUP1 REVERT JUMPDEST POP PUSH2 0x307 PUSH2 0x3A2 CALLDATASIZE PUSH1 0x4 PUSH2 0x13D2 JUMP JUMPDEST PUSH2 0xBC1 JUMP JUMPDEST CALLVALUE DUP1 ISZERO PUSH2 0x3B3 JUMPI PUSH1 0x0 DUP1 REVERT JUMPDEST POP PUSH2 0x24B PUSH1 0x7 SLOAD DUP2 JUMP JUMPDEST CALLVALUE DUP1 ISZERO PUSH2 0x3C9 JUMPI PUSH1 0x0 DUP1 REVERT JUMPDEST POP PUSH2 0x307 PUSH2 0xBFE JUMP JUMPDEST CALLVALUE DUP1 ISZERO PUSH2 0x3DE JUMPI PUSH1 0x0 DUP1 REVERT JUMPDEST POP PUSH2 0x331 PUSH2 0x3ED CALLDATASIZE PUSH1 0x4 PUSH2 0x13D2 JUMP JUMPDEST PUSH2 0xC10 JUMP JUMPDEST CALLVALUE DUP1 ISZERO PUSH2 0x3FE JUMPI PUSH1 0x0 DUP1 REVERT JUMPDEST POP PUSH2 0x307 PUSH2 0xD7B JUMP JUMPDEST CALLVALUE DUP1 ISZERO PUSH2 0x413 JUMPI PUSH1 0x0 DUP1 REVERT JUMPDEST POP PUSH2 0x307 PUSH2 0x105F JUMP JUMPDEST CALLVALUE DUP1 ISZERO PUSH2 0x428 JUMPI PUSH1 0x0 DUP1 REVERT JUMPDEST POP PUSH2 0x24B PUSH1 0x5 SLOAD DUP2 JUMP JUMPDEST CALLVALUE DUP1 ISZERO PUSH2 0x43E JUMPI PUSH1 0x0 DUP1 REVERT JUMPDEST POP PUSH2 0x47E PUSH2 0x44D CALLDATASIZE PUSH1 0x4 PUSH2 0x13D2 JUMP JUMPDEST PUSH1 0xC PUSH1 0x20 MSTORE PUSH1 0x0 SWAP1 DUP2 MSTORE PUSH1 0x40 SWAP1 KECCAK256 DUP1 SLOAD PUSH1 0x1 DUP3 ADD SLOAD PUSH1 0x2 DUP4 ADD SLOAD PUSH1 0x3 SWAP1 SWAP4 ADD SLOAD PUSH1 0x1 PUSH1 0x1 PUSH1 0xA0 SHL SUB SWAP1 SWAP3 AND SWAP3 SWAP1 SWAP2 DUP5 JUMP JUMPDEST PUSH1 0x40 DUP1 MLOAD PUSH1 0x1 PUSH1 0x1 PUSH1 0xA0 SHL SUB SWAP1 SWAP6 AND DUP6 MSTORE PUSH1 0x20 DUP6 ADD SWAP4 SWAP1 SWAP4 MSTORE SWAP2 DUP4 ADD MSTORE PUSH1 0x60 DUP3 ADD MSTORE PUSH1 0x80 ADD PUSH2 0x255 JUMP JUMPDEST PUSH2 0x307 PUSH2 0x1071 JUMP JUMPDEST CALLVALUE DUP1 ISZERO PUSH2 0x4BC JUMPI PUSH1 0x0 DUP1 REVERT JUMPDEST POP PUSH1 0x0 SLOAD PUSH1 0x1 PUSH1 0x1 PUSH1 0xA0 SHL SUB AND JUMPDEST PUSH1 0x40 MLOAD PUSH1 0x1 PUSH1 0x1 PUSH1 0xA0 SHL SUB SWAP1 SWAP2 AND DUP2 MSTORE PUSH1 0x20 ADD PUSH2 0x255 JUMP JUMPDEST CALLVALUE DUP1 ISZERO PUSH2 0x4EE JUMPI PUSH1 0x0 DUP1 REVERT JUMPDEST POP PUSH2 0x24B PUSH1 0x2 SLOAD DUP2 JUMP JUMPDEST CALLVALUE DUP1 ISZERO PUSH2 0x504 JUMPI PUSH1 0x0 DUP1 REVERT JUMPDEST POP PUSH2 0x47E PUSH2 0x513 CALLDATASIZE PUSH1 0x4 PUSH2 0x13D2 JUMP JUMPDEST PUSH2 0x10B2 JUMP JUMPDEST CALLVALUE DUP1 ISZERO PUSH2 0x524 JUMPI PUSH1 0x0 DUP1 REVERT JUMPDEST POP PUSH2 0x24B PUSH1 0x8 SLOAD DUP2 JUMP JUMPDEST CALLVALUE DUP1 ISZERO PUSH2 0x53A JUMPI PUSH1 0x0 DUP1 REVERT JUMPDEST POP PUSH2 0x543 PUSH2 0x10F6 JUMP JUMPDEST PUSH1 0x40 DUP1 MLOAD SWAP8 DUP9 MSTORE PUSH1 0x20 DUP9 ADD SWAP7 SWAP1 SWAP7 MSTORE PUSH1 0x1 PUSH1 0x1 PUSH1 0xA0 SHL SUB SWAP1 SWAP5 AND SWAP5 DUP7 ADD SWAP5 SWAP1 SWAP5 MSTORE SWAP1 ISZERO ISZERO PUSH1 0x60 DUP6 ADD MSTORE PUSH1 0x80 DUP5 ADD MSTORE PUSH1 0xA0 DUP4 ADD SWAP2 SWAP1 SWAP2 MSTORE PUSH1 0xC0 DUP3 ADD MSTORE PUSH1 0xE0 ADD PUSH2 0x255 JUMP JUMPDEST CALLVALUE DUP1 ISZERO PUSH2 0x592 JUMPI PUSH1 0x0 DUP1 REVERT JUMPDEST POP PUSH2 0x307 PUSH2 0x5A1 CALLDATASIZE PUSH1 0x4 PUSH2 0x147C JUMP JUMPDEST PUSH2 0x1149 JUMP JUMPDEST CALLVALUE DUP1 ISZERO PUSH2 0x5B2 JUMPI PUSH1 0x0 DUP1 REVERT JUMPDEST POP PUSH2 0x24B PUSH1 0x3 SLOAD DUP2 JUMP JUMPDEST CALLVALUE DUP1 ISZERO PUSH2 0x5C8 JUMPI PUSH1 0x0 DUP1 REVERT JUMPDEST POP PUSH1 0x9 SLOAD PUSH2 0x4CA SWAP1 PUSH1 0x1 PUSH1 0x1 PUSH1 0xA0 SHL SUB AND DUP2 JUMP JUMPDEST CALLVALUE DUP1 ISZERO PUSH2 0x5E8 JUMPI PUSH1 0x0 DUP1 REVERT JUMPDEST POP PUSH2 0x307 PUSH2 0x5F7 CALLDATASIZE PUSH1 0x4 PUSH2 0x13D2 JUMP JUMPDEST PUSH2 0x119E JUMP JUMPDEST CALLVALUE DUP1 ISZERO PUSH2 0x608 JUMPI PUSH1 0x0 DUP1 REVERT JUMPDEST POP PUSH1 0x9 SLOAD PUSH2 0x2AA SWAP1 PUSH1 0x1 PUSH1 0xA0 SHL SWAP1 DIV PUSH1 0xFF AND DUP2 JUMP JUMPDEST CALLVALUE DUP1 ISZERO PUSH2 0x629 JUMPI PUSH1 0x0 DUP1 REVERT JUMPDEST POP PUSH2 0x307 PUSH2 0x638 CALLDATASIZE PUSH1 0x4 PUSH2 0x13A2 JUMP JUMPDEST PUSH2 0x11DB JUMP JUMPDEST PUSH1 0x1 PUSH1 0x1 PUSH1 0xA0 SHL SUB DUP2 AND PUSH1 0x0 SWAP1 DUP2 MSTORE PUSH1 0xA PUSH1 0x20 MSTORE PUSH1 0x40 DUP2 KECCAK256 SLOAD DUP2 SUB PUSH2 0x664 JUMPI POP PUSH1 0x1 SWAP2 SWAP1 POP JUMP JUMPDEST PUSH1 0x1 PUSH1 0x1 PUSH1 0xA0 SHL SUB DUP3 AND PUSH1 0x0 SWAP1 DUP2 MSTORE PUSH1 0xA PUSH1 0x20 MSTORE PUSH1 0x40 SWAP1 KECCAK256 SLOAD PUSH2 0x68B SWAP1 PUSH3 0x15180 SWAP1 PUSH2 0x138F JUMP JUMPDEST TIMESTAMP LT ISZERO SWAP3 SWAP2 POP POP JUMP JUMPDEST PUSH2 0x69C PUSH2 0x1216 JUMP JUMPDEST PUSH1 0x0 DUP2 GT PUSH2 0x6FF JUMPI PUSH1 0x40 MLOAD PUSH3 0x461BCD PUSH1 0xE5 SHL DUP2 MSTORE PUSH1 0x20 PUSH1 0x4 DUP3 ADD MSTORE PUSH1 0x25 PUSH1 0x24 DUP3 ADD MSTORE PUSH32 0x54696D6572206475726174696F6E206D75737420626520677265617465722074 PUSH1 0x44 DUP3 ADD MSTORE PUSH5 0x68616E203 PUSH1 0xDC SHL PUSH1 0x64 DUP3 ADD MSTORE PUSH1 0x84 ADD JUMPDEST PUSH1 0x40 MLOAD DUP1 SWAP2 SUB SWAP1 REVERT JUMPDEST PUSH1 0x2 DUP2 SWAP1 SSTORE PUSH1 0x40 MLOAD DUP2 DUP2 MSTORE PUSH32 0xE7FFA30CB35B3B43CFE961CAD93BB44760A282C7B8DE6D11D9C512E73304556A SWAP1 PUSH1 0x20 ADD JUMPDEST PUSH1 0x40 MLOAD DUP1 SWAP2 SUB SWAP1 LOG1 POP JUMP JUMPDEST PUSH1 0x0 CALLVALUE GT PUSH2 0x77C JUMPI PUSH1 0x40 MLOAD PUSH3 0x461BCD PUSH1 0xE5 SHL DUP2 MSTORE PUSH1 0x20 PUSH1 0x4 DUP3 ADD MSTORE PUSH1 0xE PUSH1 0x24 DUP3 ADD MSTORE PUSH14 0x4D7573742073656E642043454C4F PUSH1 0x90 SHL PUSH1 0x44 DUP3 ADD MSTORE PUSH1 0x64 ADD PUSH2 0x6F6 JUMP JUMPDEST CALLVALUE PUSH1 0x7 PUSH1 0x0 DUP3 DUP3 SLOAD PUSH2 0x78E SWAP2 SWAP1 PUSH2 0x138F JUMP JUMPDEST SWAP1 SWAP2 SSTORE POP POP PUSH1 0x7 SLOAD PUSH1 0x40 MLOAD SWAP1 DUP2 MSTORE PUSH32 0x426FDD0D62C6E55EF3C2777CA815E26A25BCB62409BF493679B1810EF67F2910 SWAP1 PUSH1 0x20 ADD PUSH1 0x40 MLOAD DUP1 SWAP2 SUB SWAP1 LOG1 JUMP JUMPDEST PUSH1 0xB SLOAD PUSH1 0x60 SWAP1 DUP1 DUP5 LT PUSH2 0x812 JUMPI PUSH1 0x40 DUP1 MLOAD PUSH1 0x0 DUP1 DUP3 MSTORE PUSH1 0x20 DUP3 ADD SWAP1 SWAP3 MSTORE SWAP1 PUSH2 0x809 JUMP JUMPDEST PUSH2 0x7F6 PUSH2 0x1348 JUMP JUMPDEST DUP2 MSTORE PUSH1 0x20 ADD SWAP1 PUSH1 0x1 SWAP1 SUB SWAP1 DUP2 PUSH2 0x7EE JUMPI SWAP1 POP JUMPDEST POP SWAP2 POP POP PUSH2 0x92F JUMP JUMPDEST PUSH1 0x0 PUSH2 0x81E DUP5 DUP7 PUSH2 0x138F JUMP JUMPDEST SWAP1 POP DUP2 DUP2 GT ISZERO PUSH2 0x82B JUMPI POP DUP1 JUMPDEST PUSH1 0x0 PUSH2 0x837 DUP7 DUP4 PUSH2 0x14B4 JUMP JUMPDEST SWAP1 POP PUSH1 0x0 DUP2 PUSH8 0xFFFFFFFFFFFFFFFF DUP2 GT ISZERO PUSH2 0x854 JUMPI PUSH2 0x854 PUSH2 0x149E JUMP JUMPDEST PUSH1 0x40 MLOAD SWAP1 DUP1 DUP3 MSTORE DUP1 PUSH1 0x20 MUL PUSH1 0x20 ADD DUP3 ADD PUSH1 0x40 MSTORE DUP1 ISZERO PUSH2 0x88D JUMPI DUP2 PUSH1 0x20 ADD JUMPDEST PUSH2 0x87A PUSH2 0x1348 JUMP JUMPDEST DUP2 MSTORE PUSH1 0x20 ADD SWAP1 PUSH1 0x1 SWAP1 SUB SWAP1 DUP2 PUSH2 0x872 JUMPI SWAP1 POP JUMPDEST POP SWAP1 POP PUSH1 0x0 JUMPDEST DUP3 DUP2 LT ISZERO PUSH2 0x928 JUMPI PUSH1 0xB PUSH2 0x8A7 DUP3 DUP11 PUSH2 0x138F JUMP JUMPDEST DUP2 SLOAD DUP2 LT PUSH2 0x8B7 JUMPI PUSH2 0x8B7 PUSH2 0x14C7 JUMP JUMPDEST PUSH1 0x0 SWAP2 DUP3 MSTORE PUSH1 0x20 SWAP2 DUP3 SWAP1 KECCAK256 PUSH1 0x40 DUP1 MLOAD PUSH1 0x80 DUP2 ADD DUP3 MSTORE PUSH1 0x4 SWAP1 SWAP4 MUL SWAP1 SWAP2 ADD DUP1 SLOAD PUSH1 0x1 PUSH1 0x1 PUSH1 0xA0 SHL SUB AND DUP4 MSTORE PUSH1 0x1 DUP2 ADD SLOAD SWAP4 DUP4 ADD SWAP4 SWAP1 SWAP4 MSTORE PUSH1 0x2 DUP4 ADD SLOAD SWAP1 DUP3 ADD MSTORE PUSH1 0x3 SWAP1 SWAP2 ADD SLOAD PUSH1 0x60 DUP3 ADD MSTORE DUP3 MLOAD DUP4 SWAP1 DUP4 SWAP1 DUP2 LT PUSH2 0x915 JUMPI PUSH2 0x915 PUSH2 0x14C7 JUMP JUMPDEST PUSH1 0x20 SWAP1 DUP2 MUL SWAP2 SWAP1 SWAP2 ADD ADD MSTORE PUSH1 0x1 ADD PUSH2 0x893 JUMP JUMPDEST POP SWAP4 POP POP POP POP JUMPDEST SWAP3 SWAP2 POP POP JUMP JUMPDEST PUSH2 0x93D PUSH2 0x1243 JUMP JUMPDEST PUSH1 0x9 SLOAD PUSH1 0x1 PUSH1 0xA0 SHL SWAP1 DIV PUSH1 0xFF AND PUSH2 0x98B JUMPI PUSH1 0x40 MLOAD PUSH3 0x461BCD PUSH1 0xE5 SHL DUP2 MSTORE PUSH1 0x20 PUSH1 0x4 DUP3 ADD MSTORE PUSH1 0x12 PUSH1 0x24 DUP3 ADD MSTORE PUSH18 0x47616D65206973206E6F7420616374697665 PUSH1 0x70 SHL PUSH1 0x44 DUP3 ADD MSTORE PUSH1 0x64 ADD PUSH2 0x6F6 JUMP JUMPDEST PUSH1 0x3 SLOAD TIMESTAMP LT PUSH2 0x9FA JUMPI PUSH1 0x40 MLOAD PUSH3 0x461BCD PUSH1 0xE5 SHL DUP2 MSTORE PUSH1 0x20 PUSH1 0x4 DUP3 ADD MSTORE PUSH1 0x35 PUSH1 0x24 DUP3 ADD MSTORE PUSH32 0x54696D6572206861732065787069726564202D206E65772067616D652077696C PUSH1 0x44 DUP3 ADD MSTORE PUSH21 0x6C207374617274206175746F6D61746963616C6C79 PUSH1 0x58 SHL PUSH1 0x64 DUP3 ADD MSTORE PUSH1 0x84 ADD PUSH2 0x6F6 JUMP JUMPDEST PUSH1 0x0 DUP2 DUP1 ISZERO PUSH2 0xA0D JUMPI POP PUSH2 0xA0D CALLER PUSH2 0x63D JUMP JUMPDEST SWAP1 POP DUP1 ISZERO PUSH2 0xA2C JUMPI CALLER PUSH1 0x0 SWAP1 DUP2 MSTORE PUSH1 0xA PUSH1 0x20 MSTORE PUSH1 0x40 SWAP1 KECCAK256 TIMESTAMP SWAP1 SSTORE PUSH2 0xA95 JUMP JUMPDEST PUSH1 0x4 SLOAD CALLVALUE EQ PUSH2 0xA7D JUMPI PUSH1 0x40 MLOAD PUSH3 0x461BCD PUSH1 0xE5 SHL DUP2 MSTORE PUSH1 0x20 PUSH1 0x4 DUP3 ADD MSTORE PUSH1 0x1A PUSH1 0x24 DUP3 ADD MSTORE PUSH32 0x496E636F727265637420656E7472792066656520616D6F756E74000000000000 PUSH1 0x44 DUP3 ADD MSTORE PUSH1 0x64 ADD PUSH2 0x6F6 JUMP JUMPDEST CALLVALUE PUSH1 0x5 PUSH1 0x0 DUP3 DUP3 SLOAD PUSH2 0xA8F SWAP2 SWAP1 PUSH2 0x138F JUMP JUMPDEST SWAP1 SWAP2 SSTORE POP POP JUMPDEST PUSH1 0x2 SLOAD PUSH2 0xAA2 SWAP1 TIMESTAMP PUSH2 0x138F JUMP JUMPDEST PUSH1 0x3 DUP2 SWAP1 SSTORE PUSH1 0x9 DUP1 SLOAD PUSH1 0x1 PUSH1 0x1 PUSH1 0xA0 SHL SUB NOT AND CALLER SWAP1 DUP2 OR SWAP1 SWAP2 SSTORE PUSH1 0x5 SLOAD PUSH1 0x40 DUP1 MLOAD SWAP4 DUP5 MSTORE PUSH1 0x20 DUP5 ADD SWAP2 SWAP1 SWAP2 MSTORE DUP4 ISZERO ISZERO SWAP1 DUP4 ADD MSTORE SWAP1 PUSH32 0x988ADB6AFB3862CB9307E525F8C738ABE3FDB98CE22191F2B3D67B2E7466DC31 SWAP1 PUSH1 0x60 ADD PUSH1 0x40 MLOAD DUP1 SWAP2 SUB SWAP1 LOG2 POP PUSH2 0xB0D PUSH1 0x1 DUP1 SSTORE JUMP JUMPDEST POP JUMP JUMPDEST PUSH2 0xB18 PUSH2 0x1216 JUMP JUMPDEST PUSH2 0xB20 PUSH2 0x1243 JUMP JUMPDEST PUSH1 0x0 DUP1 SLOAD PUSH1 0x40 MLOAD PUSH1 0x1 PUSH1 0x1 PUSH1 0xA0 SHL SUB SWAP1 SWAP2 AND SWAP1 DUP4 SWAP1 DUP4 DUP2 DUP2 DUP2 DUP6 DUP8 GAS CALL SWAP3 POP POP POP RETURNDATASIZE DUP1 PUSH1 0x0 DUP2 EQ PUSH2 0xB6D JUMPI PUSH1 0x40 MLOAD SWAP2 POP PUSH1 0x1F NOT PUSH1 0x3F RETURNDATASIZE ADD AND DUP3 ADD PUSH1 0x40 MSTORE RETURNDATASIZE DUP3 MSTORE RETURNDATASIZE PUSH1 0x0 PUSH1 0x20 DUP5 ADD RETURNDATACOPY PUSH2 0xB72 JUMP JUMPDEST PUSH1 0x60 SWAP2 POP JUMPDEST POP POP SWAP1 POP DUP1 PUSH2 0xBB7 JUMPI PUSH1 0x40 MLOAD PUSH3 0x461BCD PUSH1 0xE5 SHL DUP2 MSTORE PUSH1 0x20 PUSH1 0x4 DUP3 ADD MSTORE PUSH1 0x11 PUSH1 0x24 DUP3 ADD MSTORE PUSH17 0x15DA5D1A191C985DD85B0819985A5B1959 PUSH1 0x7A SHL PUSH1 0x44 DUP3 ADD MSTORE PUSH1 0x64 ADD PUSH2 0x6F6 JUMP JUMPDEST POP PUSH2 0xB0D PUSH1 0x1 DUP1 SSTORE JUMP JUMPDEST PUSH2 0xBC9 PUSH2 0x1216 JUMP JUMPDEST PUSH1 0x6 DUP2 SWAP1 SSTORE PUSH1 0x40 MLOAD DUP2 DUP2 MSTORE PUSH32 0x426348C7EBE5B0615587BCBDEF4E4E98CD484057801B7CF9CF31096C6B0D1C4A SWAP1 PUSH1 0x20 ADD PUSH2 0x730 JUMP JUMPDEST PUSH2 0xC06 PUSH2 0x1216 JUMP JUMPDEST PUSH2 0xC0E PUSH2 0x126D JUMP JUMPDEST JUMP JUMPDEST PUSH1 0xB SLOAD PUSH1 0x60 SWAP1 PUSH1 0x0 DUP2 SWAP1 SUB PUSH2 0xC58 JUMPI PUSH1 0x40 DUP1 MLOAD PUSH1 0x0 DUP1 DUP3 MSTORE PUSH1 0x20 DUP3 ADD SWAP1 SWAP3 MSTORE SWAP1 PUSH2 0xC50 JUMP JUMPDEST PUSH2 0xC3D PUSH2 0x1348 JUMP JUMPDEST DUP2 MSTORE PUSH1 0x20 ADD SWAP1 PUSH1 0x1 SWAP1 SUB SWAP1 DUP2 PUSH2 0xC35 JUMPI SWAP1 POP JUMPDEST POP SWAP4 SWAP3 POP POP POP JUMP JUMPDEST PUSH1 0x0 DUP4 DUP3 GT PUSH2 0xC68 JUMPI PUSH1 0x0 PUSH2 0xC72 JUMP JUMPDEST PUSH2 0xC72 DUP5 DUP4 PUSH2 0x14B4 JUMP JUMPDEST SWAP1 POP PUSH1 0x0 PUSH2 0xC80 DUP3 DUP5 PUSH2 0x14B4 JUMP JUMPDEST SWAP1 POP PUSH1 0x0 DUP2 PUSH8 0xFFFFFFFFFFFFFFFF DUP2 GT ISZERO PUSH2 0xC9D JUMPI PUSH2 0xC9D PUSH2 0x149E JUMP JUMPDEST PUSH1 0x40 MLOAD SWAP1 DUP1 DUP3 MSTORE DUP1 PUSH1 0x20 MUL PUSH1 0x20 ADD DUP3 ADD PUSH1 0x40 MSTORE DUP1 ISZERO PUSH2 0xCD6 JUMPI DUP2 PUSH1 0x20 ADD JUMPDEST PUSH2 0xCC3 PUSH2 0x1348 JUMP JUMPDEST DUP2 MSTORE PUSH1 0x20 ADD SWAP1 PUSH1 0x1 SWAP1 SUB SWAP1 DUP2 PUSH2 0xCBB JUMPI SWAP1 POP JUMPDEST POP SWAP1 POP PUSH1 0x0 JUMPDEST DUP3 DUP2 LT ISZERO PUSH2 0xD71 JUMPI PUSH1 0xB PUSH2 0xCF0 DUP3 DUP7 PUSH2 0x138F JUMP JUMPDEST DUP2 SLOAD DUP2 LT PUSH2 0xD00 JUMPI PUSH2 0xD00 PUSH2 0x14C7 JUMP JUMPDEST PUSH1 0x0 SWAP2 DUP3 MSTORE PUSH1 0x20 SWAP2 DUP3 SWAP1 KECCAK256 PUSH1 0x40 DUP1 MLOAD PUSH1 0x80 DUP2 ADD DUP3 MSTORE PUSH1 0x4 SWAP1 SWAP4 MUL SWAP1 SWAP2 ADD DUP1 SLOAD PUSH1 0x1 PUSH1 0x1 PUSH1 0xA0 SHL SUB AND DUP4 MSTORE PUSH1 0x1 DUP2 ADD SLOAD SWAP4 DUP4 ADD SWAP4 SWAP1 SWAP4 MSTORE PUSH1 0x2 DUP4 ADD SLOAD SWAP1 DUP3 ADD MSTORE PUSH1 0x3 SWAP1 SWAP2 ADD SLOAD PUSH1 0x60 DUP3 ADD MSTORE DUP3 MLOAD DUP4 SWAP1 DUP4 SWAP1 DUP2 LT PUSH2 0xD5E JUMPI PUSH2 0xD5E PUSH2 0x14C7 JUMP JUMPDEST PUSH1 0x20 SWAP1 DUP2 MUL SWAP2 SWAP1 SWAP2 ADD ADD MSTORE PUSH1 0x1 ADD PUSH2 0xCDC JUMP JUMPDEST POP SWAP6 SWAP5 POP POP POP POP POP JUMP JUMPDEST PUSH2 0xD83 PUSH2 0x1243 JUMP JUMPDEST PUSH1 0x9 SLOAD PUSH1 0x1 PUSH1 0xA0 SHL SWAP1 DIV PUSH1 0xFF AND PUSH2 0xDD1 JUMPI PUSH1 0x40 MLOAD PUSH3 0x461BCD PUSH1 0xE5 SHL DUP2 MSTORE PUSH1 0x20 PUSH1 0x4 DUP3 ADD MSTORE PUSH1 0x12 PUSH1 0x24 DUP3 ADD MSTORE PUSH18 0x47616D65206973206E6F7420616374697665 PUSH1 0x70 SHL PUSH1 0x44 DUP3 ADD MSTORE PUSH1 0x64 ADD PUSH2 0x6F6 JUMP JUMPDEST PUSH1 0x3 SLOAD TIMESTAMP LT ISZERO PUSH2 0xE23 JUMPI PUSH1 0x40 MLOAD PUSH3 0x461BCD PUSH1 0xE5 SHL DUP2 MSTORE PUSH1 0x20 PUSH1 0x4 DUP3 ADD MSTORE PUSH1 0x19 PUSH1 0x24 DUP3 ADD MSTORE PUSH32 0x54696D657220686173206E6F7420657870697265642079657400000000000000 PUSH1 0x44 DUP3 ADD MSTORE PUSH1 0x64 ADD PUSH2 0x6F6 JUMP JUMPDEST PUSH1 0x5 SLOAD PUSH1 0x9 SLOAD PUSH1 0x8 SLOAD PUSH1 0x1 PUSH1 0x1 PUSH1 0xA0 SHL SUB SWAP1 SWAP2 AND SWAP1 DUP2 ISZERO DUP1 ISZERO SWAP1 PUSH2 0xE47 JUMPI POP PUSH1 0x0 DUP4 GT JUMPDEST ISZERO PUSH2 0x104B JUMPI PUSH1 0x40 DUP1 MLOAD PUSH1 0x80 DUP2 ADD DUP3 MSTORE PUSH1 0x1 PUSH1 0x1 PUSH1 0xA0 SHL SUB DUP1 DUP6 AND DUP1 DUP4 MSTORE PUSH1 0x20 DUP1 DUP5 ADD DUP9 DUP2 MSTORE TIMESTAMP DUP6 DUP8 ADD SWAP1 DUP2 MSTORE PUSH1 0x60 DUP7 ADD DUP9 DUP2 MSTORE PUSH1 0xB DUP1 SLOAD PUSH1 0x1 DUP2 DUP2 ADD DUP4 SSTORE PUSH1 0x0 SWAP3 DUP4 MSTORE DUP10 MLOAD PUSH1 0x4 SWAP1 SWAP3 MUL PUSH32 0x175B7A638427703F0DBE7BB9BBF987A2551717B34E79F33B5B1008D1FA01DB9 DUP2 ADD DUP1 SLOAD SWAP4 DUP12 AND PUSH1 0x1 PUSH1 0x1 PUSH1 0xA0 SHL SUB NOT SWAP5 DUP6 AND OR SWAP1 SSTORE DUP7 MLOAD PUSH32 0x175B7A638427703F0DBE7BB9BBF987A2551717B34E79F33B5B1008D1FA01DBA DUP3 ADD SSTORE DUP6 MLOAD PUSH32 0x175B7A638427703F0DBE7BB9BBF987A2551717B34E79F33B5B1008D1FA01DBB DUP3 ADD SSTORE DUP5 MLOAD PUSH32 0x175B7A638427703F0DBE7BB9BBF987A2551717B34E79F33B5B1008D1FA01DBC SWAP1 SWAP2 ADD SSTORE DUP12 DUP4 MSTORE PUSH1 0xC SWAP1 SWAP7 MSTORE DUP10 DUP3 KECCAK256 DUP10 MLOAD DUP2 SLOAD SWAP10 AND SWAP9 SWAP1 SWAP2 AND SWAP8 SWAP1 SWAP8 OR DUP8 SSTORE SWAP3 MLOAD SWAP4 DUP7 ADD SWAP4 SWAP1 SWAP4 SSTORE MLOAD PUSH1 0x2 DUP6 ADD SSTORE SWAP1 MLOAD PUSH1 0x3 SWAP4 SWAP1 SWAP4 ADD SWAP3 SWAP1 SWAP3 SSTORE SWAP3 MLOAD SWAP2 SWAP3 SWAP1 SWAP2 DUP7 SWAP1 PUSH1 0x0 PUSH1 0x40 MLOAD DUP1 DUP4 SUB DUP2 DUP6 DUP8 GAS CALL SWAP3 POP POP POP RETURNDATASIZE DUP1 PUSH1 0x0 DUP2 EQ PUSH2 0xFB6 JUMPI PUSH1 0x40 MLOAD SWAP2 POP PUSH1 0x1F NOT PUSH1 0x3F RETURNDATASIZE ADD AND DUP3 ADD PUSH1 0x40 MSTORE RETURNDATASIZE DUP3 MSTORE RETURNDATASIZE PUSH1 0x0 PUSH1 0x20 DUP5 ADD RETURNDATACOPY PUSH2 0xFBB JUMP JUMPDEST PUSH1 0x60 SWAP2 POP JUMPDEST POP POP SWAP1 POP DUP1 PUSH2 0x1004 JUMPI PUSH1 0x40 MLOAD PUSH3 0x461BCD PUSH1 0xE5 SHL DUP2 MSTORE PUSH1 0x20 PUSH1 0x4 DUP3 ADD MSTORE PUSH1 0x15 PUSH1 0x24 DUP3 ADD MSTORE PUSH21 0x141C9A5E99481D1C985B9CD9995C8819985A5B1959 PUSH1 0x5A SHL PUSH1 0x44 DUP3 ADD MSTORE PUSH1 0x64 ADD PUSH2 0x6F6 JUMP JUMPDEST PUSH1 0x40 DUP1 MLOAD DUP7 DUP2 MSTORE PUSH1 0x20 DUP2 ADD DUP6 SWAP1 MSTORE PUSH1 0x1 PUSH1 0x1 PUSH1 0xA0 SHL SUB DUP7 AND SWAP2 PUSH32 0xA64A67269ED742FA62FBD598346754EC285B938B4E9D51EC087BCD7886548792 SWAP2 ADD PUSH1 0x40 MLOAD DUP1 SWAP2 SUB SWAP1 LOG2 POP POP JUMPDEST PUSH2 0x1053 PUSH2 0x126D JUMP JUMPDEST POP POP POP PUSH2 0xC0E PUSH1 0x1 DUP1 SSTORE JUMP JUMPDEST PUSH2 0x1067 PUSH2 0x1216 JUMP JUMPDEST PUSH2 0xC0E PUSH1 0x0 PUSH2 0x12F8 JUMP JUMPDEST PUSH1 0x0 CALLVALUE GT PUSH2 0xC0E JUMPI PUSH1 0x40 MLOAD PUSH3 0x461BCD PUSH1 0xE5 SHL DUP2 MSTORE PUSH1 0x20 PUSH1 0x4 DUP3 ADD MSTORE PUSH1 0xE PUSH1 0x24 DUP3 ADD MSTORE PUSH14 0x4D7573742073656E642043454C4F PUSH1 0x90 SHL PUSH1 0x44 DUP3 ADD MSTORE PUSH1 0x64 ADD PUSH2 0x6F6 JUMP JUMPDEST PUSH1 0xB DUP2 DUP2 SLOAD DUP2 LT PUSH2 0x10C2 JUMPI PUSH1 0x0 DUP1 REVERT JUMPDEST PUSH1 0x0 SWAP2 DUP3 MSTORE PUSH1 0x20 SWAP1 SWAP2 KECCAK256 PUSH1 0x4 SWAP1 SWAP2 MUL ADD DUP1 SLOAD PUSH1 0x1 DUP3 ADD SLOAD PUSH1 0x2 DUP4 ADD SLOAD PUSH1 0x3 SWAP1 SWAP4 ADD SLOAD PUSH1 0x1 PUSH1 0x1 PUSH1 0xA0 SHL SUB SWAP1 SWAP3 AND SWAP4 POP SWAP2 SWAP1 DUP5 JUMP JUMPDEST PUSH1 0x3 SLOAD PUSH1 0x5 SLOAD PUSH1 0x9 SLOAD PUSH1 0x8 SLOAD PUSH1 0x7 SLOAD PUSH1 0x1 PUSH1 0x1 PUSH1 0xA0 SHL SUB DUP4 AND SWAP3 PUSH1 0x1 PUSH1 0xA0 SHL SWAP1 DIV PUSH1 0xFF AND SWAP2 PUSH1 0x0 SWAP2 TIMESTAMP DUP8 GT ISZERO PUSH2 0x113B JUMPI TIMESTAMP PUSH1 0x3 SLOAD PUSH2 0x1134 SWAP2 SWAP1 PUSH2 0x14B4 JUMP JUMPDEST SWAP3 POP PUSH2 0x1140 JUMP JUMPDEST PUSH1 0x0 SWAP3 POP JUMPDEST SWAP1 SWAP2 SWAP3 SWAP4 SWAP5 SWAP6 SWAP7 JUMP JUMPDEST PUSH2 0x1151 PUSH2 0x1216 JUMP JUMPDEST PUSH1 0x9 DUP1 SLOAD DUP3 ISZERO ISZERO PUSH1 0x1 PUSH1 0xA0 SHL MUL PUSH1 0xFF PUSH1 0xA0 SHL NOT SWAP1 SWAP2 AND OR SWAP1 SSTORE PUSH1 0x40 MLOAD PUSH32 0xFC5E76D60C483E79EE18A38D792A63CC569F716FCE9F2C04D20725DDA4580FCB SWAP1 PUSH2 0x730 SWAP1 DUP4 ISZERO ISZERO DUP2 MSTORE PUSH1 0x20 ADD SWAP1 JUMP JUMPDEST PUSH2 0x11A6 PUSH2 0x1216 JUMP JUMPDEST PUSH1 0x4 DUP2 SWAP1 SSTORE PUSH1 0x40 MLOAD DUP2 DUP2 MSTORE PUSH32 0xDE6C295AF150A0ECD2B5098C61BC2DC5882C1673E0F58C7DFCF0A81F7921CBCA SWAP1 PUSH1 0x20 ADD PUSH2 0x730 JUMP JUMPDEST PUSH2 0x11E3 PUSH2 0x1216 JUMP JUMPDEST PUSH1 0x1 PUSH1 0x1 PUSH1 0xA0 SHL SUB DUP2 AND PUSH2 0x120D JUMPI PUSH1 0x40 MLOAD PUSH4 0x1E4FBDF7 PUSH1 0xE0 SHL DUP2 MSTORE PUSH1 0x0 PUSH1 0x4 DUP3 ADD MSTORE PUSH1 0x24 ADD PUSH2 0x6F6 JUMP JUMPDEST PUSH2 0xB0D DUP2 PUSH2 0x12F8 JUMP JUMPDEST PUSH1 0x0 SLOAD PUSH1 0x1 PUSH1 0x1 PUSH1 0xA0 SHL SUB AND CALLER EQ PUSH2 0xC0E JUMPI PUSH1 0x40 MLOAD PUSH4 0x118CDAA7 PUSH1 0xE0 SHL DUP2 MSTORE CALLER PUSH1 0x4 DUP3 ADD MSTORE PUSH1 0x24 ADD PUSH2 0x6F6 JUMP JUMPDEST PUSH1 0x2 PUSH1 0x1 SLOAD SUB PUSH2 0x1266 JUMPI PUSH1 0x40 MLOAD PUSH4 0x3EE5AEB5 PUSH1 0xE0 SHL DUP2 MSTORE PUSH1 0x4 ADD PUSH1 0x40 MLOAD DUP1 SWAP2 SUB SWAP1 REVERT JUMPDEST PUSH1 0x2 PUSH1 0x1 SSTORE JUMP JUMPDEST PUSH1 0x8 DUP1 SLOAD SWAP1 PUSH1 0x0 PUSH2 0x127D DUP4 PUSH2 0x14DD JUMP JUMPDEST SWAP1 SWAP2 SSTORE POP POP PUSH1 0x6 SLOAD SELFBALANCE SWAP1 DUP2 LT ISZERO PUSH2 0x1294 JUMPI DUP1 PUSH2 0x1298 JUMP JUMPDEST PUSH1 0x6 SLOAD JUMPDEST PUSH1 0x5 SSTORE PUSH1 0x9 DUP1 SLOAD PUSH1 0x1 PUSH1 0x1 PUSH1 0xA0 SHL SUB NOT AND SWAP1 SSTORE PUSH1 0x2 SLOAD PUSH2 0x12B8 SWAP1 TIMESTAMP PUSH2 0x138F JUMP JUMPDEST PUSH1 0x3 SSTORE PUSH1 0x8 SLOAD PUSH1 0x5 SLOAD PUSH1 0x40 MLOAD PUSH32 0x1A92F8260FBB9503D4DA4DE0B7753E04745A81B9A56DAFCD9E51A7B828C16C73 SWAP3 PUSH2 0x730 SWAP3 SWAP1 DUP3 MSTORE PUSH1 0x20 DUP3 ADD MSTORE PUSH1 0x40 ADD SWAP1 JUMP JUMPDEST PUSH1 0x0 DUP1 SLOAD PUSH1 0x1 PUSH1 0x1 PUSH1 0xA0 SHL SUB DUP4 DUP2 AND PUSH1 0x1 PUSH1 0x1 PUSH1 0xA0 SHL SUB NOT DUP4 AND DUP2 OR DUP5 SSTORE PUSH1 0x40 MLOAD SWAP2 SWAP1 SWAP3 AND SWAP3 DUP4 SWAP2 PUSH32 0x8BE0079C531659141344CD1FD0A4F28419497F9722A3DAAFE3B4186F6B6457E0 SWAP2 SWAP1 LOG3 POP POP JUMP JUMPDEST PUSH1 0x40 MLOAD DUP1 PUSH1 0x80 ADD PUSH1 0x40 MSTORE DUP1 PUSH1 0x0 PUSH1 0x1 PUSH1 0x1 PUSH1 0xA0 SHL SUB AND DUP2 MSTORE PUSH1 0x20 ADD PUSH1 0x0 DUP2 MSTORE PUSH1 0x20 ADD PUSH1 0x0 DUP2 MSTORE PUSH1 0x20 ADD PUSH1 0x0 DUP2 MSTORE POP SWAP1 JUMP JUMPDEST PUSH4 0x4E487B71 PUSH1 0xE0 SHL PUSH1 0x0 MSTORE PUSH1 0x11 PUSH1 0x4 MSTORE PUSH1 0x24 PUSH1 0x0 REVERT JUMPDEST DUP1 DUP3 ADD DUP1 DUP3 GT ISZERO PUSH2 0x92F JUMPI PUSH2 0x92F PUSH2 0x1379 JUMP JUMPDEST PUSH1 0x0 PUSH1 0x20 DUP3 DUP5 SUB SLT ISZERO PUSH2 0x13B4 JUMPI PUSH1 0x0 DUP1 REVERT JUMPDEST DUP2 CALLDATALOAD PUSH1 0x1 PUSH1 0x1 PUSH1 0xA0 SHL SUB DUP2 AND DUP2 EQ PUSH2 0x13CB JUMPI PUSH1 0x0 DUP1 REVERT JUMPDEST SWAP4 SWAP3 POP POP POP JUMP JUMPDEST PUSH1 0x0 PUSH1 0x20 DUP3 DUP5 SUB SLT ISZERO PUSH2 0x13E4 JUMPI PUSH1 0x0 DUP1 REVERT JUMPDEST POP CALLDATALOAD SWAP2 SWAP1 POP JUMP JUMPDEST PUSH1 0x0 DUP1 PUSH1 0x40 DUP4 DUP6 SUB SLT ISZERO PUSH2 0x13FE JUMPI PUSH1 0x0 DUP1 REVERT JUMPDEST POP POP DUP1 CALLDATALOAD SWAP3 PUSH1 0x20 SWAP1 SWAP2 ADD CALLDATALOAD SWAP2 POP JUMP JUMPDEST PUSH1 0x20 DUP1 DUP3 MSTORE DUP3 MLOAD DUP3 DUP3 ADD DUP2 SWAP1 MSTORE PUSH1 0x0 SWAP2 DUP5 ADD SWAP1 PUSH1 0x40 DUP5 ADD SWAP1 DUP4 JUMPDEST DUP2 DUP2 LT ISZERO PUSH2 0x1471 JUMPI DUP4 MLOAD DUP1 MLOAD PUSH1 0x1 PUSH1 0x1 PUSH1 0xA0 SHL SUB AND DUP5 MSTORE PUSH1 0x20 DUP1 DUP3 ADD MLOAD DUP2 DUP7 ADD MSTORE PUSH1 0x40 DUP1 DUP4 ADD MLOAD SWAP1 DUP7 ADD MSTORE PUSH1 0x60 SWAP2 DUP3 ADD MLOAD SWAP2 DUP6 ADD SWAP2 SWAP1 SWAP2 MSTORE SWAP1 SWAP4 ADD SWAP3 PUSH1 0x80 SWAP1 SWAP3 ADD SWAP2 PUSH1 0x1 ADD PUSH2 0x1427 JUMP JUMPDEST POP SWAP1 SWAP6 SWAP5 POP POP POP POP POP JUMP JUMPDEST PUSH1 0x0 PUSH1 0x20 DUP3 DUP5 SUB SLT ISZERO PUSH2 0x148E JUMPI PUSH1 0x0 DUP1 REVERT JUMPDEST DUP2 CALLDATALOAD DUP1 ISZERO ISZERO DUP2 EQ PUSH2 0x13CB JUMPI PUSH1 0x0 DUP1 REVERT JUMPDEST PUSH4 0x4E487B71 PUSH1 0xE0 SHL PUSH1 0x0 MSTORE PUSH1 0x41 PUSH1 0x4 MSTORE PUSH1 0x24 PUSH1 0x0 REVERT JUMPDEST DUP2 DUP2 SUB DUP2 DUP2 GT ISZERO PUSH2 0x92F JUMPI PUSH2 0x92F PUSH2 0x1379 JUMP JUMPDEST PUSH4 0x4E487B71 PUSH1 0xE0 SHL PUSH1 0x0 MSTORE PUSH1 0x32 PUSH1 0x4 MSTORE PUSH1 0x24 PUSH1 0x0 REVERT JUMPDEST PUSH1 0x0 PUSH1 0x1 DUP3 ADD PUSH2 0x14EF JUMPI PUSH2 0x14EF PUSH2 0x1379 JUMP JUMPDEST POP PUSH1 0x1 ADD SWAP1 JUMP INVALID LOG2 PUSH5 0x6970667358 0x22 SLT KECCAK256 PUSH21 0x13EEC36407036E44462AF7C74288BC0D1D35F2996B 0xCC DUP2 LOG4 0xF9 SDIV SWAP2 BASEFEE 0xD3 0xDE RETURNDATACOPY PUSH5 0x736F6C6343 STOP ADDMOD SHR STOP CALLER "
        },
        "methodIdentifiers": {
          "FREE_PLAY_COOLDOWN()": "0c16a29b",
          "addToJackpot()": "256bcaa0",
          "claimPrize()": "70740ac9",
          "entryFee()": "072ea61c",
          "fundPrizePool()": "88b2f7c3",
          "gameActive()": "f020044f",
          "gameRound()": "a5f9b5c2",
          "getGameState()": "b7d0628b",
          "getLatestWinners(uint256)": "5b2f06b4",
          "getWinners(uint256,uint256)": "28fd8fc4",
          "getWinnersCount()": "0b75cef4",
          "initialPrizePool()": "290d9fcc",
          "isEligibleForFreePlay(address)": "1b97b5a3",
          "lastFreePlay(address)": "1c14f69f",
          "lastPlayer()": "e3450e13",
          "owner()": "8da5cb5b",
          "pressButton(bool)": "2c489e3e",
          "prizePool()": "719ce73e",
          "progressiveJackpot()": "476c4af6",
          "renounceOwnership()": "715018a6",
          "roundWinners(uint256)": "76a4956c",
          "setEntryFee(uint256)": "eb770d0c",
          "setGameActive(bool)": "ccc08974",
          "setInitialPrizePool(uint256)": "32e4809c",
          "setTimerDuration(uint256)": "203ad586",
          "startNewGame()": "482d51e0",
          "timerDuration()": "9119c13c",
          "timerEnd()": "db9f0676",
          "transferOwnership(address)": "f2fde38b",
          "winners(uint256)": "a2fb1175",
          "withdraw(uint256)": "2e1a7d4d"
        }
      }
    }
  }
}