{
  "_format": "hh-sol-artifact-1",
  "contractName": "ButtonGame",
  "sourceName": "contracts/ButtonGame.sol",
  "abi": [
    {
      "inputs": [
        {
          "internalType": "address",
          "name": "initialOwner",
          "type": "address"
        },
        {
          "internalType": "uint256",
          "name": "_initialTimerDuration",
          "type": "uint256"
        },
        {
          "internalType": "uint256",
          "name": "_initialEntryFee",
          "type": "uint256"
        },
        {
          "internalType": "uint256",
          "name": "_initialPrizePool",
          "type": "uint256"
        }
      ],
      "stateMutability": "nonpayable",
      "type": "constructor"
    },
    {
      "inputs": [
        {
          "internalType": "address",
          "name": "owner",
          "type": "address"
        }
      ],
      "name": "OwnableInvalidOwner",
      "type": "error"
    },
    {
      "inputs": [
        {
          "internalType": "address",
          "name": "account",
          "type": "address"
        }
      ],
      "name": "OwnableUnauthorizedAccount",
      "type": "error"
    },
    {
      "inputs": [],
      "name": "ReentrancyGuardReentrantCall",
      "type": "error"
    },
    {
      "anonymous": false,
      "inputs": [
        {
          "indexed": true,
          "internalType": "address",
          "name": "player",
          "type": "address"
        },
        {
          "indexed": false,
          "internalType": "uint256",
          "name": "newTimerEnd",
          "type": "uint256"
        },
        {
          "indexed": false,
          "internalType": "uint256",
          "name": "newPrizePool",
          "type": "uint256"
        },
        {
          "indexed": false,
          "internalType": "bool",
          "name": "isFreePlay",
          "type": "bool"
        }
      ],
      "name": "ButtonPressed",
      "type": "event"
    },
    {
      "anonymous": false,
      "inputs": [
        {
          "indexed": false,
          "internalType": "uint256",
          "name": "newFee",
          "type": "uint256"
        }
      ],
      "name": "EntryFeeConfigured",
      "type": "event"
    },
    {
      "anonymous": false,
      "inputs": [
        {
          "indexed": false,
          "internalType": "bool",
          "name": "active",
          "type": "bool"
        }
      ],
      "name": "GameStatusChanged",
      "type": "event"
    },
    {
      "anonymous": false,
      "inputs": [
        {
          "indexed": false,
          "internalType": "uint256",
          "name": "newAmount",
          "type": "uint256"
        }
      ],
      "name": "InitialPrizePoolConfigured",
      "type": "event"
    },
    {
      "anonymous": false,
      "inputs": [
        {
          "indexed": false,
          "internalType": "uint256",
          "name": "round",
          "type": "uint256"
        },
        {
          "indexed": false,
          "internalType": "uint256",
          "name": "initialPrize",
          "type": "uint256"
        }
      ],
      "name": "NewGameStarted",
      "type": "event"
    },
    {
      "anonymous": false,
      "inputs": [
        {
          "indexed": true,
          "internalType": "address",
          "name": "previousOwner",
          "type": "address"
        },
        {
          "indexed": true,
          "internalType": "address",
          "name": "newOwner",
          "type": "address"
        }
      ],
      "name": "OwnershipTransferred",
      "type": "event"
    },
    {
      "anonymous": false,
      "inputs": [
        {
          "indexed": true,
          "internalType": "address",
          "name": "winner",
          "type": "address"
        },
        {
          "indexed": false,
          "internalType": "uint256",
          "name": "amount",
          "type": "uint256"
        },
        {
          "indexed": false,
          "internalType": "uint256",
          "name": "round",
          "type": "uint256"
        }
      ],
      "name": "PrizeWon",
      "type": "event"
    },
    {
      "anonymous": false,
      "inputs": [
        {
          "indexed": false,
          "internalType": "uint256",
          "name": "newAmount",
          "type": "uint256"
        }
      ],
      "name": "ProgressiveJackpotUpdated",
      "type": "event"
    },
    {
      "anonymous": false,
      "inputs": [
        {
          "indexed": false,
          "internalType": "uint256",
          "name": "newDuration",
          "type": "uint256"
        }
      ],
      "name": "TimerConfigured",
      "type": "event"
    },
    {
      "inputs": [],
      "name": "FREE_PLAY_COOLDOWN",
      "outputs": [
        {
          "internalType": "uint256",
          "name": "",
          "type": "uint256"
        }
      ],
      "stateMutability": "view",
      "type": "function"
    },
    {
      "inputs": [],
      "name": "addToJackpot",
      "outputs": [],
      "stateMutability": "payable",
      "type": "function"
    },
    {
      "inputs": [],
      "name": "claimPrize",
      "outputs": [],
      "stateMutability": "nonpayable",
      "type": "function"
    },
    {
      "inputs": [],
      "name": "entryFee",
      "outputs": [
        {
          "internalType": "uint256",
          "name": "",
          "type": "uint256"
        }
      ],
      "stateMutability": "view",
      "type": "function"
    },
    {
      "inputs": [],
      "name": "fundPrizePool",
      "outputs": [],
      "stateMutability": "payable",
      "type": "function"
    },
    {
      "inputs": [],
      "name": "gameActive",
      "outputs": [
        {
          "internalType": "bool",
          "name": "",
          "type": "bool"
        }
      ],
      "stateMutability": "view",
      "type": "function"
    },
    {
      "inputs": [],
      "name": "gameRound",
      "outputs": [
        {
          "internalType": "uint256",
          "name": "",
          "type": "uint256"
        }
      ],
      "stateMutability": "view",
      "type": "function"
    },
    {
      "inputs": [],
      "name": "getGameState",
      "outputs": [
        {
          "internalType": "uint256",
          "name": "_timerEnd",
          "type": "uint256"
        },
        {
          "internalType": "uint256",
          "name": "_prizePool",
          "type": "uint256"
        },
        {
          "internalType": "address",
          "name": "_lastPlayer",
          "type": "address"
        },
        {
          "internalType": "bool",
          "name": "_gameActive",
          "type": "bool"
        },
        {
          "internalType": "uint256",
          "name": "_timeRemaining",
          "type": "uint256"
        },
        {
          "internalType": "uint256",
          "name": "_currentRound",
          "type": "uint256"
        },
        {
          "internalType": "uint256",
          "name": "_progressiveJackpot",
          "type": "uint256"
        }
      ],
      "stateMutability": "view",
      "type": "function"
    },
    {
      "inputs": [
        {
          "internalType": "uint256",
          "name": "count",
          "type": "uint256"
        }
      ],
      "name": "getLatestWinners",
      "outputs": [
        {
          "components": [
            {
              "internalType": "address",
              "name": "winner",
              "type": "address"
            },
            {
              "internalType": "uint256",
              "name": "prize",
              "type": "uint256"
            },
            {
              "internalType": "uint256",
              "name": "timestamp",
              "type": "uint256"
            },
            {
              "internalType": "uint256",
              "name": "round",
              "type": "uint256"
            }
          ],
          "internalType": "struct ButtonGame.WinnerInfo[]",
          "name": "",
          "type": "tuple[]"
        }
      ],
      "stateMutability": "view",
      "type": "function"
    },
    {
      "inputs": [
        {
          "internalType": "uint256",
          "name": "fromIndex",
          "type": "uint256"
        },
        {
          "internalType": "uint256",
          "name": "count",
          "type": "uint256"
        }
      ],
      "name": "getWinners",
      "outputs": [
        {
          "components": [
            {
              "internalType": "address",
              "name": "winner",
              "type": "address"
            },
            {
              "internalType": "uint256",
              "name": "prize",
              "type": "uint256"
            },
            {
              "internalType": "uint256",
              "name": "timestamp",
              "type": "uint256"
            },
            {
              "internalType": "uint256",
              "name": "round",
              "type": "uint256"
            }
          ],
          "internalType": "struct ButtonGame.WinnerInfo[]",
          "name": "",
          "type": "tuple[]"
        }
      ],
      "stateMutability": "view",
      "type": "function"
    },
    {
      "inputs": [],
      "name": "getWinnersCount",
      "outputs": [
        {
          "internalType": "uint256",
          "name": "",
          "type": "uint256"
        }
      ],
      "stateMutability": "view",
      "type": "function"
    },
    {
      "inputs": [],
      "name": "initialPrizePool",
      "outputs": [
        {
          "internalType": "uint256",
          "name": "",
          "type": "uint256"
        }
      ],
      "stateMutability": "view",
      "type": "function"
    },
    {
      "inputs": [
        {
          "internalType": "address",
          "name": "user",
          "type": "address"
        }
      ],
      "name": "isEligibleForFreePlay",
      "outputs": [
        {
          "internalType": "bool",
          "name": "",
          "type": "bool"
        }
      ],
      "stateMutability": "view",
      "type": "function"
    },
    {
      "inputs": [
        {
          "internalType": "address",
          "name": "",
          "type": "address"
        }
      ],
      "name": "lastFreePlay",
      "outputs": [
        {
          "internalType": "uint256",
          "name": "",
          "type": "uint256"
        }
      ],
      "stateMutability": "view",
      "type": "function"
    },
    {
      "inputs": [],
      "name": "lastPlayer",
      "outputs": [
        {
          "internalType": "address",
          "name": "",
          "type": "address"
        }
      ],
      "stateMutability": "view",
      "type": "function"
    },
    {
      "inputs": [],
      "name": "owner",
      "outputs": [
        {
          "internalType": "address",
          "name": "",
          "type": "address"
        }
      ],
      "stateMutability": "view",
      "type": "function"
    },
    {
      "inputs": [
        {
          "internalType": "bool",
          "name": "useFreePlay",
          "type": "bool"
        }
      ],
      "name": "pressButton",
      "outputs": [],
      "stateMutability": "payable",
      "type": "function"
    },
    {
      "inputs": [],
      "name": "prizePool",
      "outputs": [
        {
          "internalType": "uint256",
          "name": "",
          "type": "uint256"
        }
      ],
      "stateMutability": "view",
      "type": "function"
    },
    {
      "inputs": [],
      "name": "progressiveJackpot",
      "outputs": [
        {
          "internalType": "uint256",
          "name": "",
          "type": "uint256"
        }
      ],
      "stateMutability": "view",
      "type": "function"
    },
    {
      "inputs": [],
      "name": "renounceOwnership",
      "outputs": [],
      "stateMutability": "nonpayable",
      "type": "function"
    },
    {
      "inputs": [
        {
          "internalType": "uint256",
          "name": "",
          "type": "uint256"
        }
      ],
      "name": "roundWinners",
      "outputs": [
        {
          "internalType": "address",
          "name": "winner",
          "type": "address"
        },
        {
          "internalType": "uint256",
          "name": "prize",
          "type": "uint256"
        },
        {
          "internalType": "uint256",
          "name": "timestamp",
          "type": "uint256"
        },
        {
          "internalType": "uint256",
          "name": "round",
          "type": "uint256"
        }
      ],
      "stateMutability": "view",
      "type": "function"
    },
    {
      "inputs": [
        {
          "internalType": "uint256",
          "name": "_newFee",
          "type": "uint256"
        }
      ],
      "name": "setEntryFee",
      "outputs": [],
      "stateMutability": "nonpayable",
      "type": "function"
    },
    {
      "inputs": [
        {
          "internalType": "bool",
          "name": "_active",
          "type": "bool"
        }
      ],
      "name": "setGameActive",
      "outputs": [],
      "stateMutability": "nonpayable",
      "type": "function"
    },
    {
      "inputs": [
        {
          "internalType": "uint256",
          "name": "_newAmount",
          "type": "uint256"
        }
      ],
      "name": "setInitialPrizePool",
      "outputs": [],
      "stateMutability": "nonpayable",
      "type": "function"
    },
    {
      "inputs": [
        {
          "internalType": "uint256",
          "name": "_newDuration",
          "type": "uint256"
        }
      ],
      "name": "setTimerDuration",
      "outputs": [],
      "stateMutability": "nonpayable",
      "type": "function"
    },
    {
      "inputs": [],
      "name": "startNewGame",
      "outputs": [],
      "stateMutability": "nonpayable",
      "type": "function"
    },
    {
      "inputs": [],
      "name": "timerDuration",
      "outputs": [
        {
          "internalType": "uint256",
          "name": "",
          "type": "uint256"
        }
      ],
      "stateMutability": "view",
      "type": "function"
    },
    {
      "inputs": [],
      "name": "timerEnd",
      "outputs": [
        {
          "internalType": "uint256",
          "name": "",
          "type": "uint256"
        }
      ],
      "stateMutability": "view",
      "type": "function"
    },
    {
      "inputs": [
        {
          "internalType": "address",
          "name": "newOwner",
          "type": "address"
        }
      ],
      "name": "transferOwnership",
      "outputs": [],
      "stateMutability": "nonpayable",
      "type": "function"
    },
    {
      "inputs": [
        {
          "internalType": "uint256",
          "name": "",
          "type": "uint256"
        }
      ],
      "name": "winners",
      "outputs": [
        {
          "internalType": "address",
          "name": "winner",
          "type": "address"
        },
        {
          "internalType": "uint256",
          "name": "prize",
          "type": "uint256"
        },
        {
          "internalType": "uint256",
          "name": "timestamp",
          "type": "uint256"
        },
        {
          "internalType": "uint256",
          "name": "round",
          "type": "uint256"
        }
      ],
      "stateMutability": "view",
      "type": "function"
    },
    {
      "inputs": [
        {
          "internalType": "uint256",
          "name": "amount",
          "type": "uint256"
        }
      ],
      "name": "withdraw",
      "outputs": [],
      "stateMutability": "nonpayable",
      "type": "function"
    },
    {
      "stateMutability": "payable",
      "type": "receive"
    }
  ],
  "bytecode": "0x608060405234801561001057600080fd5b506040516116e63803806116e683398101604081905261002f91610139565b836001600160a01b03811661005e57604051631e4fbdf760e01b81526000600482015260240160405180910390fd5b610067816100e9565b5060018080556002849055600483905560068290556009805460ff60a01b1916600160a01b17905560085560006005556100a18342610184565b60035560085460408051918252602082018390527f1a92f8260fbb9503d4da4de0b7753e04745a81b9a56dafcd9e51a7b828c16c73910160405180910390a1505050506101ab565b600080546001600160a01b038381166001600160a01b0319831681178455604051919092169283917f8be0079c531659141344cd1fd0a4f28419497f9722a3daafe3b4186f6b6457e09190a35050565b6000806000806080858703121561014f57600080fd5b84516001600160a01b038116811461016657600080fd5b60208601516040870151606090970151919890975090945092505050565b808201808211156101a557634e487b7160e01b600052601160045260246000fd5b92915050565b61152c806101ba6000396000f3fe6080604052600436106101dc5760003560e01c806370740ac911610102578063a5f9b5c211610095578063e3450e1311610064578063e3450e13146105bc578063eb770d0c146105dc578063f020044f146105fc578063f2fde38b1461061d57600080fd5b8063a5f9b5c214610518578063b7d0628b1461052e578063ccc0897414610586578063db9f0676146105a657600080fd5b806388b2f7c3116100d157806388b2f7c3146104a85780638da5cb5b146104b05780639119c13c146104e2578063a2fb1175146104f857600080fd5b806370740ac9146103f2578063715018a614610407578063719ce73e1461041c57806376a4956c1461043257600080fd5b806328fd8fc41161017a57806332e4809c1161014957806332e4809c14610387578063476c4af6146103a7578063482d51e0146103bd5780635b2f06b4146103d257600080fd5b806328fd8fc414610311578063290d9fcc1461033e5780632c489e3e146103545780632e1a7d4d1461036757600080fd5b80631b97b5a3116101b65780631b97b5a31461028a5780631c14f69f146102ba578063203ad586146102e7578063256bcaa01461030957600080fd5b8063072ea61c146102355780630b75cef41461025e5780630c16a29b1461027357600080fd5b366102305734600760008282546101f3919061138f565b90915550506007546040519081527f426fdd0d62c6e55ef3c2777ca815e26a25bcb62409bf493679b1810ef67f29109060200160405180910390a1005b600080fd5b34801561024157600080fd5b5061024b60045481565b6040519081526020015b60405180910390f35b34801561026a57600080fd5b50600b5461024b565b34801561027f57600080fd5b5061024b6201518081565b34801561029657600080fd5b506102aa6102a53660046113a2565b61063d565b6040519015158152602001610255565b3480156102c657600080fd5b5061024b6102d53660046113a2565b600a6020526000908152604090205481565b3480156102f357600080fd5b506103076103023660046113d2565b610694565b005b61030761073b565b34801561031d57600080fd5b5061033161032c3660046113eb565b6107cb565b604051610255919061140d565b34801561034a57600080fd5b5061024b60065481565b61030761036236600461147c565b610935565b34801561037357600080fd5b506103076103823660046113d2565b610b10565b34801561039357600080fd5b506103076103a23660046113d2565b610bc1565b3480156103b357600080fd5b5061024b60075481565b3480156103c957600080fd5b50610307610bfe565b3480156103de57600080fd5b506103316103ed3660046113d2565b610c10565b3480156103fe57600080fd5b50610307610d7b565b34801561041357600080fd5b5061030761105f565b34801561042857600080fd5b5061024b60055481565b34801561043e57600080fd5b5061047e61044d3660046113d2565b600c6020526000908152604090208054600182015460028301546003909301546001600160a01b0390921692909184565b604080516001600160a01b0390951685526020850193909352918301526060820152608001610255565b610307611071565b3480156104bc57600080fd5b506000546001600160a01b03165b6040516001600160a01b039091168152602001610255565b3480156104ee57600080fd5b5061024b60025481565b34801561050457600080fd5b5061047e6105133660046113d2565b6110b2565b34801561052457600080fd5b5061024b60085481565b34801561053a57600080fd5b506105436110f6565b6040805197885260208801969096526001600160a01b03909416948601949094529015156060850152608084015260a083019190915260c082015260e001610255565b34801561059257600080fd5b506103076105a136600461147c565b611149565b3480156105b257600080fd5b5061024b60035481565b3480156105c857600080fd5b506009546104ca906001600160a01b031681565b3480156105e857600080fd5b506103076105f73660046113d2565b61119e565b34801561060857600080fd5b506009546102aa90600160a01b900460ff1681565b34801561062957600080fd5b506103076106383660046113a2565b6111db565b6001600160a01b0381166000908152600a6020526040812054810361066457506001919050565b6001600160a01b0382166000908152600a602052604090205461068b90620151809061138f565b42101592915050565b61069c611216565b600081116106ff5760405162461bcd60e51b815260206004820152602560248201527f54696d6572206475726174696f6e206d75737420626520677265617465722074604482015264068616e20360dc1b60648201526084015b60405180910390fd5b60028190556040518181527fe7ffa30cb35b3b43cfe961cad93bb44760a282c7b8de6d11d9c512e73304556a906020015b60405180910390a150565b6000341161077c5760405162461bcd60e51b815260206004820152600e60248201526d4d7573742073656e642043454c4f60901b60448201526064016106f6565b346007600082825461078e919061138f565b90915550506007546040519081527f426fdd0d62c6e55ef3c2777ca815e26a25bcb62409bf493679b1810ef67f29109060200160405180910390a1565b600b54606090808410610812576040805160008082526020820190925290610809565b6107f6611348565b8152602001906001900390816107ee5790505b5091505061092f565b600061081e848661138f565b90508181111561082b5750805b600061083786836114b4565b905060008167ffffffffffffffff8111156108545761085461149e565b60405190808252806020026020018201604052801561088d57816020015b61087a611348565b8152602001906001900390816108725790505b50905060005b8281101561092857600b6108a7828a61138f565b815481106108b7576108b76114c7565b600091825260209182902060408051608081018252600490930290910180546001600160a01b0316835260018101549383019390935260028301549082015260039091015460608201528251839083908110610915576109156114c7565b6020908102919091010152600101610893565b5093505050505b92915050565b61093d611243565b600954600160a01b900460ff1661098b5760405162461bcd60e51b815260206004820152601260248201527147616d65206973206e6f742061637469766560701b60448201526064016106f6565b60035442106109fa5760405162461bcd60e51b815260206004820152603560248201527f54696d6572206861732065787069726564202d206e65772067616d652077696c6044820152746c207374617274206175746f6d61746963616c6c7960581b60648201526084016106f6565b6000818015610a0d5750610a0d3361063d565b90508015610a2c57336000908152600a60205260409020429055610a95565b6004543414610a7d5760405162461bcd60e51b815260206004820152601a60248201527f496e636f727265637420656e7472792066656520616d6f756e7400000000000060448201526064016106f6565b3460056000828254610a8f919061138f565b90915550505b600254610aa2904261138f565b6003819055600980546001600160a01b0319163390811790915560055460408051938452602084019190915283151590830152907f988adb6afb3862cb9307e525f8c738abe3fdb98ce22191f2b3d67b2e7466dc319060600160405180910390a250610b0d60018055565b50565b610b18611216565b610b20611243565b600080546040516001600160a01b039091169083908381818185875af1925050503d8060008114610b6d576040519150601f19603f3d011682016040523d82523d6000602084013e610b72565b606091505b5050905080610bb75760405162461bcd60e51b815260206004820152601160248201527015da5d1a191c985dd85b0819985a5b1959607a1b60448201526064016106f6565b50610b0d60018055565b610bc9611216565b60068190556040518181527f426348c7ebe5b0615587bcbdef4e4e98cd484057801b7cf9cf31096c6b0d1c4a90602001610730565b610c06611216565b610c0e61126d565b565b600b546060906000819003610c58576040805160008082526020820190925290610c50565b610c3d611348565b815260200190600190039081610c355790505b509392505050565b6000838211610c68576000610c72565b610c7284836114b4565b90506000610c8082846114b4565b905060008167ffffffffffffffff811115610c9d57610c9d61149e565b604051908082528060200260200182016040528015610cd657816020015b610cc3611348565b815260200190600190039081610cbb5790505b50905060005b82811015610d7157600b610cf0828661138f565b81548110610d0057610d006114c7565b600091825260209182902060408051608081018252600490930290910180546001600160a01b0316835260018101549383019390935260028301549082015260039091015460608201528251839083908110610d5e57610d5e6114c7565b6020908102919091010152600101610cdc565b5095945050505050565b610d83611243565b600954600160a01b900460ff16610dd15760405162461bcd60e51b815260206004820152601260248201527147616d65206973206e6f742061637469766560701b60448201526064016106f6565b600354421015610e235760405162461bcd60e51b815260206004820152601960248201527f54696d657220686173206e6f742065787069726564207965740000000000000060448201526064016106f6565b6005546009546008546001600160a01b03909116908115801590610e475750600083115b1561104b57604080516080810182526001600160a01b0380851680835260208084018881524285870190815260608601888152600b8054600181810183556000928352895160049092027f0175b7a638427703f0dbe7bb9bbf987a2551717b34e79f33b5b1008d1fa01db981018054938b166001600160a01b031994851617905586517f0175b7a638427703f0dbe7bb9bbf987a2551717b34e79f33b5b1008d1fa01dba82015585517f0175b7a638427703f0dbe7bb9bbf987a2551717b34e79f33b5b1008d1fa01dbb82015584517f0175b7a638427703f0dbe7bb9bbf987a2551717b34e79f33b5b1008d1fa01dbc909101558b8352600c90965289822089518154991698909116979097178755925193860193909355516002850155905160039390930192909255925191929091869060006040518083038185875af1925050503d8060008114610fb6576040519150601f19603f3d011682016040523d82523d6000602084013e610fbb565b606091505b50509050806110045760405162461bcd60e51b8152602060048201526015602482015274141c9a5e99481d1c985b9cd9995c8819985a5b1959605a1b60448201526064016106f6565b60408051868152602081018590526001600160a01b038616917fa64a67269ed742fa62fbd598346754ec285b938b4e9d51ec087bcd7886548792910160405180910390a250505b61105361126d565b505050610c0e60018055565b611067611216565b610c0e60006112f8565b60003411610c0e5760405162461bcd60e51b815260206004820152600e60248201526d4d7573742073656e642043454c4f60901b60448201526064016106f6565b600b81815481106110c257600080fd5b600091825260209091206004909102018054600182015460028301546003909301546001600160a01b039092169350919084565b6003546005546009546008546007546001600160a01b03831692600160a01b900460ff16916000914287111561113b574260035461113491906114b4565b9250611140565b600092505b90919293949596565b611151611216565b60098054821515600160a01b0260ff60a01b199091161790556040517ffc5e76d60c483e79ee18a38d792a63cc569f716fce9f2c04d20725dda4580fcb9061073090831515815260200190565b6111a6611216565b60048190556040518181527fde6c295af150a0ecd2b5098c61bc2dc5882c1673e0f58c7dfcf0a81f7921cbca90602001610730565b6111e3611216565b6001600160a01b03811661120d57604051631e4fbdf760e01b8152600060048201526024016106f6565b610b0d816112f8565b6000546001600160a01b03163314610c0e5760405163118cdaa760e01b81523360048201526024016106f6565b60026001540361126657604051633ee5aeb560e01b815260040160405180910390fd5b6002600155565b6008805490600061127d836114dd565b909155505060065447908110156112945780611298565b6006545b600555600980546001600160a01b03191690556002546112b8904261138f565b6003556008546005546040517f1a92f8260fbb9503d4da4de0b7753e04745a81b9a56dafcd9e51a7b828c16c739261073092908252602082015260400190565b600080546001600160a01b038381166001600160a01b0319831681178455604051919092169283917f8be0079c531659141344cd1fd0a4f28419497f9722a3daafe3b4186f6b6457e09190a35050565b604051806080016040528060006001600160a01b031681526020016000815260200160008152602001600081525090565b634e487b7160e01b600052601160045260246000fd5b8082018082111561092f5761092f611379565b6000602082840312156113b457600080fd5b81356001600160a01b03811681146113cb57600080fd5b9392505050565b6000602082840312156113e457600080fd5b5035919050565b600080604083850312156113fe57600080fd5b50508035926020909101359150565b602080825282518282018190526000918401906040840190835b8181101561147157835180516001600160a01b0316845260208082015181860152604080830151908601526060918201519185019190915290930192608090920191600101611427565b509095945050505050565b60006020828403121561148e57600080fd5b813580151581146113cb57600080fd5b634e487b7160e01b600052604160045260246000fd5b8181038181111561092f5761092f611379565b634e487b7160e01b600052603260045260246000fd5b6000600182016114ef576114ef611379565b506001019056fea26469706673582212207413eec36407036e44462af7c74288bc0d1d35f2996bcc81a4f9059148d3de3e64736f6c634300081c0033",
  "linkReferences": {},
  "deployedLinkReferences": {}
}